:020000041000EA
:1000000000B5324B212058609868022188439860DF
:10001000D860186158612E4B002199600221596106
:100020000121F02299502B49196001219960352056
:1000300000F044F80222904214D00621196600F024
:1000400034F8196E01211966002018661A6600F04E
:100050002CF8196E196E196E052000F02FF8012189
:100060000842F9D1002199601B49196000215960AB
:100070001A491B48016001219960EB211966A021F2
:10008000196600F012F800219960164914480160C1
:100090000121996001BC002800D000471248134993
:1000A000086003C880F30888084703B5996A0420EC
:1000B0000142FBD001200142F8D103BD02B5186610
:1000C0001866FFF7F2FF186E186E02BD00000240BE
:1000D000000000180000070000035F00212200005C
:1000E000F4000018222000A00001001008ED00E03C
:1000F00000000000000000000000000074B24E7A12
:1001000000200420F7010010C3010010C5010010F9
:10011000C1010010C1010010C1010010C101001097
:10012000C1010010C1010010C1010010453F0010C5
:10013000C1010010C1010010A13F0010E53F0010F7
:10014000CD010010CD010010CD010010CD01001037
:10015000CD010010CD010010CD010010CD01001027
:10016000CD010010CD010010CD010010CD01001017
:10017000CD010010CD010010CD010010CD01001007
:10018000CD010010CD010010CD010010CD010010F7
:10019000CD010010CD010010CD010010CD010010E7
:1001A000CD010010CD010010CD010010CD010010D7
:1001B000CD010010CD010010CD010010CD010010C7
:1001C00000BE00BE00BE00BE00BE00BEEFF3058054
:1001D000103800BEF2EB88711C5700104057001019
:1001E0003402001090A31AE700201F49086006C8D7
:1001F00081F3088810471D48006800282FD10DA4FE
:100200000ECC002902D000F012F8F9E71849194A7B
:10021000002000E001C19142FCD1174988471749ED
:1002200088471749884700BEFDE701C901C29A42C5
:10023000FBD3704740570010C0000020740200201C
:10024000F45800100000042000000420F4580010AE
:10025000001004200010042000000000704709482E
:1002600001F098FC0047000008ED00E0000000D01D
:10027000780200203CCB00200D1A0010C5030010AE
:10028000011B00105756000006005250ABB36053DC
:100290005856001006005250861C03026856001083
:1002A000060052505422A29D705600100500525074
:1002B000DE65F468F4580010F8B5C0460448054BF4
:1002C00010B5834203D0044B002B00D0984710BDDB
:1002D0007402002074020020000000000648074954
:1002E000091A8B10C90FC91810B5491003D0044B57
:1002F000002B00D0984710BD74020020740200202B
:100300000000000010B5074C2378002B09D1FFF73F
:10031000D5FF054B002B02D0044800E000BF0123AD
:10032000237010BDC805002000000000F05500102B
:10033000054B10B5002B03D00449054800E000BF71
:10034000FFF7CCFF10BDC04600000000CC05002028
:10035000F055001070B5D025802684B0192000F02B
:1003600077F8164C2D06B604154920006E6201F090
:10037000D5FF0321042000F03BF80321052000F005
:1003800037F800220121042000F04AF80022012160
:10039000052000F045F800230F220093772120006C
:1003A00001336A4401F0E4FF002805DD6E6101209D
:1003B000404202F0A7FDFAE704B070BD48020020F9
:1003C000A086010000B583B001F05AFE0023802210
:1003D000019301330449009352000023034802F0C3
:1003E0009BF902F04BFCFEE7F0550010550300109E
:1003F000094A830094464022634410B51C68C0003B
:100400006240C02414408022520113431C60034BFD
:100410009C466044416010BD04C001400040014062
:100420000A4B80009C4604236044002901D00C2321
:100430000821002A00D10B00026853400C221A4008
:1004400080235B01184302607047C04604C001402E
:100450000123D0228340120693629361094A8300EC
:100460009446402263441968C0004A40C0211140AC
:100470008022520113431960034B9C4605236044BC
:100480004360704704C0014000400140024B1868BF
:100490008007C00F7047C04600C0064070B5EFF33C
:1004A000108C72B60D4D2B68002BFCD0BFF35F8F04
:1004B0000724CB08C618C05C01230C40A3401C00D5
:1004C0000440034207D103433370BFF35F8F2C60B6
:1004D0008CF3108870BD100001F016FB2C0100D0C9
:1004E0000021044B044ABFF35F8F02C39342FAD149
:1004F0007047C046000100D0800100D0044A107847
:10050000431CDBB2172B00D9102313707047C04671
:100510009801002001238340002904D0034A13607E
:10052000034A13607047034A1360FBE780E200E070
:1005300000E100E080E100E0024B10309B688000A9
:10054000C058704700ED00E070B50D00EFF3108665
:1005500072B60F4A1368002BFCD0BFF35F8F0D4BB0
:1005600010309B6884001B590B4A934203D09D4274
:1005700001D001F0E1FA074B9B681D51BFF35F8F7B
:10058000BFF35F8F0022024B1A6086F3108870BDA4
:10059000240100D000ED00E0CD010010F0B5DE46F2
:1005A00057464E464546E0B50C0083B0EFF3108940
:1005B00072B6584A1368002BFCD0BFF35F8F564BBE
:1005C0009A68030010339F00D559544A90469542CB
:1005D00032D0A54243D0524EAA1B2F2A2CD801223A
:1005E0008240924651464F4A12681140019151464D
:1005F0004D4A1160BFF35F8FEFF305829346002AE7
:1006000033D101232A009A4393689C4208D177E0B2
:100610004B005B189B00F3189968A1422AD01A007E
:10062000062151560029F3DA019B002B19D05246BE
:100630003E4B1A603B4B1A60374B9B68DD51BFF352
:100640005F8FBFF35F8F0022324B1A6089F31088EF
:1006500003B0F0BCBB46B246A946A046F0BD1500AB
:10066000EAE75246304B1A60E6E79342C9D001F000
:1006700063FAC6E706215956002921DB4A005018C3
:10068000800034188046A0689860E079D871062010
:1006900020569871002824DBA488F01A64052415DC
:1006A00044440019E0240005400D240220439880B2
:1006B00052181F4B9200B6181A781970B271B3E72E
:1006C000594600290FD1FF3191711A49918018497B
:1006D0000A789A71184A9B1B5B415A43120D0A70A3
:1006E000A2E71648E3E7164A1649D21A083A50021A
:1006F000400D01439980144952080A43DA8093E778
:100700000621515613000029B8DA5A46002AEAD1C8
:100710004546DCE7240100D000ED00E0CD010010EB
:100720009C01002000E100E080E100E080E200E0C8
:1007300039CB002001BDFFFFAAAA000001BD0000C7
:10074000D601002000F0FFFF00F8FFFF70B5EFF3C7
:10075000058101240443EFF3108C72B6214A13681B
:10076000002BFCD0BFF35F8F1F4B05001F4AED1A13
:100770006D416A43120D1E4D8900AE6852B2765823
:10078000A6421CD00621595691421CD0122159561E
:10079000914222D01E215956914220D02A215956E9
:1007A0000324914210D0134B19781A708171BFF352
:1007B0005F8F00220B4B1A608CF3108870BDAB6802
:1007C0000D4C5C50EFE700246100091989005B18AB
:1007D000FF21997109499980E5E70124F4E7022492
:1007E000F2E7C046240100D09C010020AAAA000024
:1007F00000ED00E039CB0020CD01001001BDFFFF6E
:10080000054B064A1360064A136053609360D36039
:1008100013615361936170478080808000E400E041
:1008200004E400E0024B9C4661448900016070478B
:100830004000003410B50400FFF760FE0100200006
:10084000FFF7F0FFFF232371BFF35F8F10BDC0469A
:1008500010B50400FFF752FE01002000FFF7E2FF91
:10086000FF23A380BFF35F8F10BDC04683680B4892
:1008700010B5844661446244090112019A1859185E
:1008800054684B6801209C4201D802D00020C0B2BD
:1008900010BD12680B689A42F9D8F7E7FFFFFF0F07
:1008A0000A4B1968EFF3108072B60A68002AFCD070
:1008B000BFF35F8F1B68BFF35F8F00221A6080F366
:1008C000108840BF002000217047C0461CCB00208C
:1008D000F8B557464E464546DE46E0B599460CAB60
:1008E0001C780DAB1B78060090469A460768002CD2
:1008F00011D1BC7B002C42D065003B682D19033D13
:1009000059194B78BB73002B00D1FB7300238B70FC
:100910004B700B7004E065003B682D19033D5919BD
:10092000B2682A4B94464246E3181B0163441A609E
:100930004A465A600A9A9A600B9ADA6000238B70D2
:100940004B700B707B7B9B46002B2BD022005946B3
:10095000B8687B6898473A68002816D05B465846C6
:100960005B005B445519033BA870D118D35C002B86
:1009700000D06B705B460C707B73A34513D0F0BC4A
:10098000BB46B246A946A046F8BD5B465B005B4449
:10099000033BD3189C705119525D002A00D05A7045
:1009A0005B460B707C7342464B46307D00F02EFB5D
:1009B000051E06D05346002B03D12100306800F0FD
:1009C00049FD0E9B002BDAD01D70D8E7FFFFFF0F0B
:1009D000F0B5DE4657464E4645460023E0B58BB09F
:1009E0000893674B8200D45800239B46099000F07F
:1009F00093FA626806000F00EFF3108572B6136871
:100A0000002BFCD0BFF35F8F23689C465B7B99462D
:100A1000002B00D169E0A2685A4B90464B441B0161
:100A2000984443461A685B6810001900801BB9415E
:100A3000002900DC63E0099800F0E8FA00230022B6
:100A4000984600230692079300239A466368BFF3F3
:100A50005F8F5A461A6085F310885346002B08D1E1
:100A60000028C4D10BB0F0BCBB46B246A946A04694
:100A7000F0BD089B414618024B461843D0476268B8
:100A800006000F00EFF3108572B61368002BFCD040
:100A9000BFF35F8F002F50DB33003B4302D023694D
:100AA000002B61D12368D97B002907D04A00521856
:100AB00019688C4649466244033A51709A7B002A71
:100AC00001D14A469A734A46DA734B46E168013BC4
:100AD000CA5C0132CA545B4623616368BFF35F8F0F
:100AE0005A461A6085F3108881E700230022984651
:100AF000002306920793002300209A46A6E70029C8
:100B000002D1002800D096E70021604600F020FCCA
:100B100043461A685B680692079343469B689A4669
:100B20004346DB689846E3684B44013B1B780893D7
:100B30001B0203432361002088E72369002BB1D007
:100B4000069A079B921BBB41002B15DB594604916B
:100B500001210391494602914146019151462000ED
:100B60000091FFF7B5FEB6E700F0D6F932003B0082
:100B700012184B41002BE9DA0122034B5242E5E700
:100B800008CB0020FFFFFF0FFFFFFF7F10B5144CC5
:100B90006368002B04D00A211248FFF743FE10BD02
:100BA0002300114A1021206800F0ECFA032000F025
:100BB000A7F9032000F094FA03200C4900F0E0F9B3
:100BC000FFF79CFC0A4B9C4603232375D0231B068E
:100BD0001B6860446375074B80006060DC60DAE787
:100BE000E40100201CCB00206D080010D10900108A
:100BF0004000003408CB0020F0B54E464546DE46A6
:100C00005746E0B585B0019310AB1B7806000393FF
:100C100000239946984600927268EFF3108B72B6E3
:100C20001368002BFCD0BFF35F8F3568AC7B002CC2
:100C30003DD067002B683F19033FDB195A78AA7330
:100C4000002A00D1EA73B168474A8C46009801999E
:100C5000A21812016244106051600E9991600F99C0
:100C6000D16042469A705A701A706B7B9A46002B7C
:100C700067D022001900A8686B6898472A68002886
:100C800052D0534650465B005344D719033BB870CB
:100C9000D118D35C002B00D07B7053460C706B7363
:100CA00054454FD0F3681B19013B187800E0002031
:100CB0007368BFF35F8F42461A608BF31088002C75
:100CC0004FD04B46002B08D10002204305B0F0BCAA
:100CD000BB46B246A946A046F0BD039B002B3ED0C2
:100CE0000E9B00200F999847030004000D000B4352
:100CF00035D000290ADA009A019B121BAB41009201
:100D00000193002B0ADB039B994685E700F004F969
:100D100024184D4100940195002DF4DA0123134C61
:100D20005B4200930194EEE753465B005344033B60
:100D3000D3189C70D119D25D002A00D05A70534646
:100D40000B706C73307D009A019B00F05FF9814657
:100D50000028A7D02100306800F07CFBA2E700202B
:100D6000B4E701204042B1E7FFFFFF0FFFFFFF7F25
:100D7000F0B5EFF30583CE46474680B505000C007D
:100D800085B0002B12D02C4A0020536A9C4203D815
:100D9000926A0130AA4204D305B0C0BCB946B0463D
:100DA000F0BDE01A421E9041C0B2F5E7234E029317
:100DB0000193234B0200009330000B00FFF71CFF50
:100DC000031EE0DD20BF7168EFF3108772B60A687A
:100DD000002AFCD0BFF35F8FDAB294463068427BC2
:100DE00062451DD0FF221A40510089460168914496
:100DF00088464946414403398978002913D0F1686F
:100E00001B0A88464244013A1278DBB29A420FD05C
:100E10007368BFF35F8F00221A6087F31088B2E710
:100E2000FF221A40EBE732699342F1D13161EFE7DB
:100E3000614600F00FFBEBE700400540E4010020B5
:100E4000A1080010F0B5EFF30582D6464F4646469E
:100E50001000C0B51038EFF3108872B6214C23682B
:100E6000002BFCD0BFF35F8F0123190081401E4D82
:100E70001F006963AA461D4D29601D4D2E78AC46A2
:100E80003500C5402F402B4209D1BFF35F8F27604B
:100E900088F31088E0BCBA46B146A846F0BD534678
:100EA000144D5F6A83005D59AF420ED3124A8E43E0
:100EB0009B5862461670BFF35F8F0022226088F352
:100EC0001088002BE6D09847E4E70C4B92009C4634
:100ED000624413681360BFF35F8F0023236088F3BD
:100EE0001088D7E7280100D0004005403C7005403D
:100EF0003ACB002020CB00207CCA0020D03F054008
:100F000010B50100024A0348FFF7C8FA10BDC046F9
:100F1000FC55001038CB0020034B596A0A00986A30
:100F2000596A8A42FAD170470040054070B5040002
:100F30000D00124A536A1900966A536A8B42FAD11D
:100F40003000190024184D41AB4211D80ED02B00AF
:100F50000A494A6A9A42FCD307D1084A02E0516A18
:100F6000994202D1916AA142F9D370BDA642EED94D
:100F7000012301246442E5175B42E9E70040054094
:100F800070B504000D00EFF3108672B61A4A1368AC
:100F9000002BFCD0BFF35F8F002D1BD02000FFF78C
:100FA000CBFA164981420AD02000FFF7CDFA012181
:100FB0002000FFF7AFFA0123A340114A1360114B41
:100FC000A400E550BFF35F8F00220B4B1A6086F33D
:100FD000108870BD0B4BA200D5500122A2400A49D7
:100FE00020000B7893430B700449FFF7D7FA0021D8
:100FF0002000FFF78FFAE5E7280100D0450E00102A
:10100000386005407CCA00203ACB0020F0B54F463E
:10101000D6464646C0B507002C4C616A0D00A66A4C
:10102000616AA942FAD18B4208D805D00120E0BC00
:10103000BA46B146A846F0BDB242F7D9EFF3108ADE
:1010400072B6234801680029FCD0BFF35F8F0125E9
:10105000BD4020491D4C8846097889462943C9B2BC
:101060008C46414660460870391D1B4889006563FF
:101070000A51B9000B50216A0020294219D0616A37
:101080000800A66A616A8142FAD18B4219D801D15F
:10109000B24216D8CC4516D00C4B1F201D625D63A2
:1010A00001230740BB400D4A1E38136043464A46A1
:1010B0001A70BFF35F8F0022054B1A608AF3108805
:1010C000B5E70020F5E70120F3E7C0460040054002
:1010D000280100D03ACB002020CB002080E200E0A5
:1010E000EFF3108C72B60A490B68002BFCD0BFF3EB
:1010F0005F8F01238340074A0748136202789A43AF
:101100000270BFF35F8F00230B608CF31088704771
:10111000280100D0004005403ACB002070B5050002
:1011200014001600002915D00C00002A12D0806887
:101130006B689847296800280ED073009B196200DD
:10114000033B1219CB18033A9C7088188A5C002A5A
:1011500015D10670200070BD63001B197200033B9F
:101160009219CB18033A9E7088188A5C002A02D123
:1011700004703400EEE75A7004703400EAE75A70E5
:101180000670E7E730B583600023CCB243730133C8
:10119000047342608373C4730D000068012C06D988
:1011A000421C0133DBB2137003329C42F9D1FF21A0
:1011B00029404B005918002340180338437030BDB4
:1011C000F8B5CE46474606000C0080B5002907D08A
:1011D0004D0003686D18033D5A195778002F04D14C
:1011E0002000C0BCB946B046F8BD7900C919033922
:1011F0008846434459788946002159705170736874
:101200003A002100806898473368002814D042468D
:101210009A18947059195B5D002B00D053700F70B1
:10122000270049463000FFF7CBFF390002003000AD
:10123000FFF774FF0400D3E7424641465D19AF70E3
:101240009A185B5C002B00D06B701470E9E7C04605
:10125000F0B557464546DE464E46E0B50D006B00FC
:1012600001685B19DF1E0400C85D83B00192CA19D2
:10127000002850D043001B18033BCB185E78B446BF
:10128000002E1AD1019E002E42D0E67B002E04D003
:1012900073009B19CB18033B5D70A37B002B00D11F
:1012A000A573E57300282FD10023537003B0F0BC61
:1012B000BB46B246A946A046F0BD72006244033A5E
:1012C00089184A78904600224A7091465A70010067
:1012D00032002000FFF722FF43468246002B07D052
:1012E0005B0021684344033BCB185A78002A16D18F
:1012F000424651462000FFF711FF2168019BCA19A1
:10130000002BC2D10028CFD043001B18033BCB18C1
:1013100000219970C8E7019B002BB6D1C4E75000AB
:101320008018033809184878834648464870587032
:1013300041462000FFF7F2FE594680462000FFF7A5
:101340003FFF414602002000FFF7E8FE8046CFE75E
:10135000F0B557464546DE464E46E0B583B00191AE
:10136000457B04006B0000685B19DF1EC15DC2197C
:10137000002952D04B005B18033BC3185E78B4467B
:10138000002E1CD1019E002E44D0E67B002E04D0FE
:1013900073009B19C318033B5D70A37B002B00D126
:1013A000A573E573002931D10023280053706173C0
:1013B00003B0F0BCBB46B246A946A046F0BD7200E1
:1013C0006244033A80184278904600224270914667
:1013D0005A7020003200FFF7A1FE43468246002BE0
:1013E00007D05B0021684344033BCB185A78002A9E
:1013F00017D1424651462000FFF790FE019B0100A5
:101400002068C219002BC0D10029CDD04B005B1839
:10141000033BC31800209870C6E7019B002BB4D192
:10142000C2E75000801803380918487883464846B8
:101430004870587041462000FFF770FE59468046BC
:101440002000FFF7BDFE414602002000FFF766FEC8
:101450008046CEE770B5040000292CD0437B8B4238
:101460002ED0056848004018033828188278002AD2
:1014700021D053009B18033BEA5CEE188A4202D14C
:101480001BE0002A08D053009B18033BEB185A7846
:101490008A42F6D142785A70002301228370437049
:1014A0002000FFF7D5FE617B02002000FFF736FE2B
:1014B0006073012000E0002070BD43783370EBE7DB
:1014C00001221900FFF7C4FE60730120F4E7C04653
:1014D000F8B5CE464746040080B506200E0000F061
:1014E00023FA051E51D0524B5249E21853425A4139
:1014F0008023DB039C4692054F4B62441A604F4B9E
:101500001A6010008B689843FBD1494B8021E31887
:101510005A4253414A4A5B0049009952062000F062
:1015200003FA3100C00000F067FBC30932D140224A
:10153000012190466162A362256BEB0736D4270038
:101540008026E36A00232C3776013E433360062071
:10155000256300F0E9F94146800000F04DFB236B64
:1015600005009846DB073BD46022E36A5A406E23AD
:101570001340336043462363802310229B013B4387
:101580001A60304B23630323A3642800C0BCB94610
:10159000B046F8BD2C4A93423FD900232B492C4A30
:1015A0006162A362256B9046EB07C8D52200C02379
:1015B00030329B011343234A06201A60666AA26AEE
:1015C000B601B61800F0B0F9224900F015FBB602DA
:1015D0000100300000F010FB0021FFF7A7FCAEE790
:1015E0002200C02330329B011343164A06201A60A2
:1015F000636AA26A9B019946914400F095F94B46B3
:1016000014499B02994600F0F7FA0100484600F0A1
:10161000F3FA0021FFF78AFCA6E77F2299018846AA
:1016200010400130400819008044030082E7C046A2
:101630000080FCBF00C0004000E0004000F000401F
:1016400030CB002001030000FEFF0000FFFF000080
:10165000C0FF3F004E0E000030B50C2083B000F0FC
:10166000B9F9FEF713FF00280ED0994B994A1A607A
:101670005A609A60DA601A615A619A61DA611A6294
:10168000954A5A6203B030BD944CA06700F0AAF9A5
:101690000122934B1A60636C012BFCD10322914B06
:1016A0001A608E4A936B012BFCD1013301218E4AC3
:1016B0008E480093043300F03DF905238C4A0093D3
:1016C00001218C4800F036F98B4B5A68FF2A02D86A
:1016D000802252005A6080227D4C824B2169120187
:1016E000854D1A60002907D0606900F085FA431C17
:1016F0005800C0180338FDD2E0217F4B02201A6841
:101700001140802252012A43116019684840032188
:101710000140116004219A681142FCD0802280218E
:1017200092012A4309011160802252005A60734BD2
:101730002361734B5968FF2900D85A600321684A16
:101740006F4B116002399A681142FCD0E0201A6890
:101750001040802252011A4310601868484003214B
:1017600001400220116066498A681042FCD0802244
:1017700092011343802212011A608022614B5200B1
:101780004A606361604B5968FF2900D85A60802223
:101790005E4BE16912015C4D1A60002907D0606957
:1017A00000F02AFA431C5800C0180338FDD2E0228A
:1017B00055490B681A4080235B012B431A60802334
:1017C00080229B012B4312011A608022414B520060
:1017D0004A60E3614E4B5968FF2900D85A60802265
:1017E0004C4B216A12014A4D1A60002907D06069EA
:1017F00000F002FA431C5800C0180338FDD2E02262
:1018000043490B681A4080235B012B431A608023F5
:1018100080229B012B4312011A60802380225B00EF
:101820004B602C4BD20223623B4B5968914200D251
:101830005A608022394B616A1201374D1A600029C3
:1018400007D0606900F0D8F9431C5800C01803386D
:10185000FDD2E02230490B681A4080235B012B4304
:101860001A60802380229B012B4312011A6080237F
:10187000DB024B60184B6362294B5A68FF2A02D87F
:10188000802252005A608022264BA1691201244D09
:101890001A60002907D0606900F0AEF9431C5800B7
:1018A000C0180338FDD2E0221D490B681A4080237E
:1018B0005B012B431A60802380229B012B43120182
:1018C0001A6080235B004B600E4BA361DAE6C046D2
:1018D00094CA0020006CDC021BB7000000800040AE
:1018E0003CB0004030B00040002F685900800240FA
:1018F000008C864700C0024030800040001BB700CB
:101900003C800040405973075480004054B0004070
:101910006080004060B000406C8000406CB00040CF
:101920004880004048B00040014B8000C0587047DC
:1019300094CA0020F8B5040021481D0017000E00CD
:1019400000F05AF90100380000F056F9069B29040E
:101950001B0319432368002B20DB1A4B1A4DE21896
:1019600053425A4180235B019C461203174B624449
:101970001A60174B1A601700AB689F43FBD1C02257
:10198000231D92011A4321232660A060136023685F
:10199000002BFCDA0823E1601360F8BD3F232268C6
:1019A0001340B342D9D1A3681B051B0D8342D4D188
:1019B000EE22E368D20213408B42CED1EDE7C0465F
:1019C000001BB7000040FDBF00C0004000E0004029
:1019D00000F000408023024A9B000343D36270471B
:1019E00000800540AA23064A1B0113602F230549E6
:1019F000D360054B19605368002BFCDA7047C04672
:101A00000040024000B0FA00006002402C4B2D4A1A
:101A100070B51A602C4A2D4B2D491A6014008B6842
:101A20009C43FBD12B4D2C4EB54208D2013E761B78
:101A3000B60808CD984723000134B342F9D1FFF727
:101A40000BFE264A214B1A60214A9368DB43DB01D7
:101A5000DD09002BF9D14022214B224C224E9A67FE
:101A60005A671A67DA66B44208D223682000002B4E
:101A700020D00834FEF7ECFEB442F6D31B4E1C4CCB
:101A8000C022A168300000F093F9A660FEF728FD9F
:101A9000FEF7B6FEFFF77AF8164C174EB44208D29E
:101AA000013E361BB60808CC98472B0001359E42F4
:101AB000F9D170BD0834FEF7BDFEB442D5D3DDE7E1
:101AC00000E00040BFCDFBFEFE7F3C0000F0004088
:101AD00000C000406002002070020020FFFFFF01F4
:101AE00000F00140580200206002002000000020A9
:101AF00000ED00E0700200207402002000BEFDE74F
:101B000010B5FFF7FBFFC0460FB400B5084883B01F
:101B100000F080FA049B002B07D005A91800019162
:101B200000F018F8034800F075FA0120FFF7E6FF0F
:101B3000205600103056001010B50148FFF7E4FFA2
:101B40003456001010B5002800D110BD00F016FA70
:101B5000FBE7C04610B5094A0300146884B0002CA6
:101B600008D0012200910648524203A9A047012053
:101B700004B010BD00F04EFA0020F9E704CB0020BD
:101B8000451B001001480421014B1847100200209A
:101B9000B51B0010142310B50100188804331B88EE
:101BA000984710BD162310B50100188802331B8812
:101BB000984710BDF8B54746CE4680B50F1E19D0E0
:101BC00014239946043304000025012698464B4609
:101BD0001888434621681B88984701C4431E9841D2
:101BE000013540420640AF42F1D13000C0BCB94699
:101BF000B046F8BD0126F8E7114A936F9B0813D24F
:101C000010665166002905D0FFE7FFE7FFE7516F37
:101C1000106F704704B5002801D00020C04303F0C6
:101C2000D7FC002104BDC046F0B5146E556E576F49
:101C3000166FFFF7E5FF1466556657671667F0BD28
:101C4000000000D0132370B51D78012D15D010DDD4
:101C50001C48FFF7A7FF1C4C01008022200000F069
:101C6000A7F8022D06D01948FFF794FF184B18600B
:101C700070BD154C174BA364F5E7164B124C23604F
:101C80006360A360E36023616361A361E361236236
:101C90006362A362E36223636363A363E363236416
:101CA0006364A364E36423656365A365E3652366F6
:101CB0006366A366E36623676367A367E367A3645A
:101CC000D1E7C04653440000C80300204C33000055
:101CD00018CB0020D91C001007B5604601880A0AFD
:101CE0000230DF2AFAD1C9B2820804D302884088C0
:101CF0000004104300E00068014A5050039007BD03
:101D0000C8030020132310B512481C78FFF74AFFC0
:101D10000100012C0AD003DD80220F4800F048F8B2
:101D20000E48FFF737FF0E4B186010BD0A4C5422C7
:101D3000200000F03DF80B4B6365A365E365236667
:101D40006366A366E36623676367A367E36723624B
:101D5000E361E5E753460000C80400204C3300006F
:101D600018CB0020691D001007B5604601880A0ADB
:101D70000230DF2AFAD1C9B2820804D3028840882F
:101D80000004104300E00068014A5050039007BD72
:101D9000C804002001480421014B184720020020FC
:101DA000B51B0010014B1B681847000020020020E3
:101DB000014B5B681847000020020020030010B5AB
:101DC000080011001B68984710BDC046F0B5464694
:101DD0004F46D646C0B5437D80460E001700002B07
:101DE00046D0002A3FDD4B1E9946244B0125002496
:101DF00000209A460DE04B461B5D0D3B5A42534175
:101E0000325DDBB20A2A0BD02B00013401359F4230
:101E10001ADD002CEFD14346325D1B7D0A2AF3D137
:101E2000002BF1D1A04204DA4346211A1B68301876
:101E30009847434650461B680221984701342800C2
:101E40002B0001359F42E4DC874204DD4346391A0A
:101E50001B6830189847F619013E33780D3B5A42FB
:101E6000534142461375E0BCBA46B146A846F0BDA0
:101E70000368110030009847F5E7C046A0560010EF
:101E8000F0B5DE4657464E464546E0B585B01700EC
:101E90001C0006000D00FFF73FF80023304A12181F
:101EA0004B41002B58DB2F4908008A4603F098FB72
:101EB00001906B1C03D1300003F050FB0500002C97
:101EC00025D1294B9846294B1C68002C15D0002F92
:101ED00020D1274F02E02469002C0ED02368002B6C
:101EE000F9D03B68002B01D0A342F4D120002A0096
:101EF0003100C0472469002CF0D1019B002B27D171
:101F000005B0F0BCBB46B246A946A046F0BD194B91
:101F10009846D8E7164B994602ABDF1D0A239B462D
:101F200002E02469002CE8D02368002BF9D04B464E
:101F30001B68002B01D0A342F3D12A0031002000FE
:101F4000C0475B460122390020003B70C047E8E7EC
:101F5000504603F035FBD3E70122074B5242A2E77C
:101F600040420F0058020020CD1D0010FCCA002086
:101F700000CB0020BD1D0010FFFFFF7FF0B5CE4657
:101F8000474680B583B06B460600DD1D2870FEF71E
:101F9000C3FF00231A4A12184B41002B2BDB1949AF
:101FA0000800884603F01CFB174B81461C68002C78
:101FB00014D0164F02E02469002C0FD02368002BA8
:101FC000F9D03B68002B01D0A342F4D120000122BC
:101FD0002900FFF7FBFE2469002CEFD14B46002BB4
:101FE00005D1300003B0C0BCB946B046F0BD404694
:101FF00003F0E6FAF5E70122054B5242CFE7C0466F
:1020000040420F0058020020FCCA002000CB0020F4
:10201000FFFFFF7F70B5040003F0A0FA002301006A
:10202000050001222000FFF72BFF084B1C68002C45
:1020300006D06368002B05D098472469002CF8D19E
:10204000280070BD2469002CF3D1F9E7FCCA0020F8
:102050000A4A1368002B05D10CE01A001B691032E4
:10206000002B07D09842F8D1002902D103691360F0
:10207000016170470029FCD01060FAE7FCCA00201B
:1020800010B500F0C5F8012010BDC046F0B50D1E1A
:1020900015DD0E4B0D271A680D4B4519D318594203
:1020A0004B410C495B005E5E20210478A64207D0BC
:1020B00093691942FCD101301460A842F5D1F0BDFA
:1020C00093691942FCD11760F2E7C04634CB002077
:1020D0000080FCBF30CB002030B504000D1E26DD93
:1020E000002010211B4B013C1A689369194219D139
:1020F000013093691942FCD1136823548542F4D10D
:10210000154B1B68002B0CD050239363516B183B6D
:1021100034320B401100802252010A431360002820
:1021200015D030BD0C4B1B68002BEDD1F7E70A4BE7
:102130001B68002B0BD050223821064B1B689A637A
:102140005A6B34331140802252011343196003202B
:102150004042E6E734CB00208CCA0020064B10B585
:102160001B68002B06D00021044A12689163044AC0
:102170001068984710BDC0468CCA002034CB0020A0
:1021800090CA00201D4BF0B51A68C64698461C4BF5
:102190000E00D31859424B411A4F14331C0005004E
:1021A00000B53B68002807D0002B11D0164B3D60CE
:1021B0001E6080BCB846F0BD002BF7D090630021B4
:1021C0002000FEF7A7F920001049FEF7E7F9EDE738
:1021D00020000E49FEF7B8F901212000FEF79AF918
:1021E0004346502238211B689A635A6B343311409E
:1021F0008022520113431960D8E7C04634CB002037
:102200000080FCBF8CCA002090CA00205D21001015
:102210000C4B10B51B780C4B0C4C1B780C4B022153
:1022200000202360FEF7E4F802210120FEF7E0F829
:10223000E12120684902FFF74BF901210548FFF72A
:1022400007FF10BD385700103C57001034CB00205A
:102250000040034030020020F8B5DE4657464E46A7
:1022600045468346E0B505200C00FFF75DFB060000
:10227000600821008019FFF7BFFC430098468044A6
:10228000070005214046FFF7B7FC3B1A9A46204B52
:102290008146700080199C4234D81E49FFF7ACFC7F
:1022A000451C5B461C680023E366226804335340E8
:1022B00006221A4080235B0123431A605346E361E0
:1022C0004B462362434601204F2B03D95021404601
:1022D000FFF792FCA0232200E0508023E06F7C32C5
:1022E00045402D045B0113432D0C1D600123390073
:1022F0003000E366FFF780FCF0BCBB46B246A9465F
:10230000A046F8BD0449FFF777FC451CC9E7C04665
:102310003F420F008096980040787D01104A70B5CA
:10232000821A53425A41072352429A430D4B1032AC
:102330001A600D4B0D4C1A601500A3689D432B1EAF
:10234000FAD166240268FF340571D5661460633CD7
:102350008833FF3CD5639563D450FFF77DFF70BD94
:102360004802002000E0004000F0004000C00040B3
:10237000F0B54546DE4657464E4693460022E0B548
:102380001D0009AB1B78040098460368DA66013229
:102390005960DA66002D3EDD41464A4052029446BD
:1023A00080220020520091466F1E803A596F1029FA
:1023B000FCD0002826D000268021B2464900B84231
:1023C00012D0196102E0996F002913D19958596D03
:1023D0000029F8D00220404243462371F0BCBB469E
:1023E000B246A946A046F0BD6646514631434E4628
:1023F0003143E6E759461B690B5401308542EBD067
:102400002368D3E721790029D5D08026A021F600C2
:10241000B246C900D3E70020DEE7C046F0B5C646A5
:1024200000B5040001F09EFD374D2B6801332B6091
:102430006B68002B32D0354E736C002B27D0E26ACC
:10244000B36C0133B364F36C934200D2F264930033
:102450009B189B00EF18FA689168A260E160906891
:10246000211D416091602A000832D3186361BB6866
:102470000133BB6001F082FD736C002B04D06B68EC
:10248000DA6AE36A9A4210D380BCB846F0BD6B6842
:10249000E26ADB6A9342D3D86C60D1E76C602B6848
:1024A000012B05D0E26A194ECAE701F04FFDEBE7B8
:1024B0002800083001F00AFF28001C3001F006FF58
:1024C0002800303001F002FF2800443001F0FEFE09
:1024D000582398462F00A84440466C3701F0F6FE7A
:1024E000380001F0F3FE094E300001F0EFFE30003D
:1024F000143001F0EBFE3000283001F0E7FE4346D7
:10250000E26AF36337649BE7E40500206406002079
:1025100070B5104C104E14E001F024FD236ADD6804
:10252000281D01F007FF3368013B3360236D013B39
:10253000236501F023FD286B01F018FE280001F04F
:1025400015FE236D002BE7D1B368012BF9D901F0FB
:10255000FDFCF6E764060020E4050020F0B54F46D8
:102560004646D64604001F4DC0B56B6D1E4E9846BC
:10257000EB6B0F0099462B6C70689A46043001F0A3
:10258000D9FE631C16D07368716844445C600431E2
:10259000A0450BD8484601F0B5FEAB6DA34200D96B
:1025A000AC65E0BCBA46B146A846F0BD504601F065
:1025B000A9FEF6E7002FE6D07268EB6A996893608F
:1025C0007268D1607268996804324A607268043235
:1025D0009A602A00736828325A61AB6A0133AB6291
:1025E000DFE7C04664060020E4050020F0B545465C
:1025F000DE4657464E46E0B5454983B04D6D6B1CEF
:1026000001934B65002B0CD1CB6B0A6CCA630B6436
:10261000CB6D0133CB65CB6B1B68002B6FD1013BBE
:102620008B6500228B6D9446019A9A425AD3CB6BEC
:102630001B68002B53D000239A46364B9B46082339
:102640009946D94438E0504614685861013C1460FA
:102650009A6A002A0ED0DC69186A5568A060186A68
:1026600044601C001834A5424ED05046146898624D
:10267000013C1460DC6ACA6C944200D9CC645846B0
:102680004646A200121992008018C7684A44BD68E5
:102690009F60DD60BD686E60BE605A618368013313
:1026A00083605B465B68DB6A9C4201D901239C46E0
:1026B000CB6B1B68002B12D0CB6B0198DB68DB68FF
:1026C0005A68904222D39868DC685A6984606060D6
:1026D000181D804650684045B5D15460B3E70123CA
:1026E0005B428B650B6E002B01D001239C4660463C
:1026F00003B0F0BCBB46B246A946A046F0BDCB6BCA
:10270000DB681B688B658CE75060AEE78A65E9E79C
:1027100064060020E4050020F8B5CE4647469846FA
:10272000930080B5070018000D00994601F0A2FC47
:10273000061E00D193E0682001F09CFC041E00D12D
:1027400090E068220021FFF72DFB4846072304385C
:10275000266336189E43002D5FD034232A78E25436
:102760002B78002B56D035236A78E2546B78002BF7
:1027700050D03623AA78E254AB78002B4AD03723C6
:10278000EA78E254EB78002B44D038232A79E254DB
:102790002B79002B3ED039236A79E2546B79002BD8
:1027A00038D03A23AA79E254AB79002B32D03B23BC
:1027B000EA79E254EB79002B2CD03C232A7AE254BC
:1027C0002B7A002B26D03D236A7AE2546B7A002BB9
:1027D00020D03E23AA7AE254AB7A002B1AD03F23B2
:1027E000EA7AE254EB7A002B14D040232A7BE2549D
:1027F0002B7B002B0ED041236A7BE2546B7B002B9A
:1028000008D04223AA7BE254AB7B002B02D04323A7
:10281000EA7BE25443230022E254089D032D27D88B
:10282000E562201D01F05EFD2000183001F05AFD28
:1028300004235D1B4246390030002461A5616462B7
:1028400001F070FB099B2060002B00D01C60200071
:10285000FFF7E4FD0120C0BCB946B046F8BD012039
:102860004042F8E7300001F081FC01204042F2E7ED
:102870000325D5E7F8B5040001F074FB214E002CC8
:1028800031D0271D380001F055FDA36A002B03D07D
:102890002000183001F04EFD1B4DAB6C0133AB64D2
:1028A0007368A34221D03368013B3360EB6B1B6834
:1028B000002B15D0EB6BDB681B68AB6501F05EFB92
:1028C0007368A34205D0206B01F050FC200001F09A
:1028D0004DFC6B6C002B02D07368A3420ED0F8BD88
:1028E000013BAB65EAE77468CBE728003900143098
:1028F00001F0FCFC2B6D01332B65DFE701F026FBBB
:10290000EDE7C046E40500206406002010B5040091
:1029100001F028FB002C04D0E46A01F02FFB20001A
:1029200010BD014B5C68F7E7E405002010B504001A
:1029300001F02EFB002C04D0E46A01F02DFB2000F6
:1029400010BD014B5C68F7E7E4050020F8B5040012
:102950000D00032900D9032501F004FB002C28D029
:10296000E36A9D4219D0234F1AD87E68361B724203
:102970005641A269E562002A02DB04214D1BA561D4
:1029800039009A00D31808319B006269CB189A422B
:1029900012D0002E01D001F0D9FA01F0EFFAF8BD03
:1029A0007A68A24224D07A68D66AAE42B6417642AC
:1029B000DFE7104B5C68D3E7251D280001F0BAFC67
:1029C0000D4BE26AD96C8A4200D9DA6493009B18F5
:1029D0009B00F918CA6808379068FF18E0608B6898
:1029E00090680133A2604560956067618B60D0E7B5
:1029F0000026BEE7E405002064060020F8B50400C8
:102A000001F0B0FA474E002C47D0271D380001F0E6
:102A100091FCA36A002B03D02000183001F08AFC3F
:102A2000414D39002800283001F060FC6423E25C4D
:102A3000012A01D10022E2546523E25C012A01D17E
:102A40000022E2546623E25C012A01D10022E25412
:102A500001F094FA6B6C002B03D17368A3420FD082
:102A6000F8BD01F07FFAEB6B1B68002B17D0EB6B06
:102A7000DB681B68AB6501F081FA7368A342EFD194
:102A80006B6C002B10D1A96A326891420AD06B6E30
:102A9000002B0CD001232B66E2E77468B5E7013BFD
:102AA000AB65E8E77360DBE701F050FAD8E72B6627
:102AB000EA6C9300991889007118896800291DD162
:102AC000501E83001918890071188968002927D1C0
:102AD000901E8300191889007118896800291FD178
:102AE000D01E83001918890071188968002917D130
:102AF000043A930099188900711889689B189B0003
:102B0000F0180300C16810334968C160994204D0CD
:102B1000CB687360EA647368A2E74169C160F7E754
:102B20000200EBE7E405002064060020F8B5224D22
:102B300004006B6883420BD0002809D001F012FA20
:102B40001E4E6269330028339A4202D001F016FA11
:102B5000F8BDA36AB342F9D0002BF7D16433E35C2C
:102B6000012BF3D06523E35C012BEFD06623E35CFC
:102B7000012BEBD0271D380001F0DCFBE36AF26C7F
:102B8000934200D9F3649A00D2189200A818C16841
:102B90008E68A160E6608E6877608F6029000831DA
:102BA0008A1862618268013282606A68D26A9342DE
:102BB000CCD901F0CBF9C9E7E40500206406002078
:102BC000F8B5CE46474680B5040001F0E1F9294E3C
:102BD000626933002833050000279A4207D0280095
:102BE00001F0DAF93800C0BCB946B046F8BDA36AB6
:102BF000B342F4D0002BF2D16433E35C012BEED06E
:102C00006523E35C012BEAD06623E35C012BE6D06D
:102C1000736E002B28D1184BE26A98465B68DB6A1A
:102C20009A4202D9012301373366231D18009946C1
:102C300001F080FBE26AF36C9A4200D9F2649300DF
:102C40009A1843464E4692009918CB689868A3603C
:102C5000E060986846609E60434608339B18636155
:102C60008B6801338B60BAE721003000183101F026
:102C70003DFBB4E764060020E4050020802070B529
:102C8000C00001F0F7F9051E34D0682001F0F2F918
:102C9000041E32D068220021FFF784F8FF239B0036
:102CA0009C460723256365449D43164B201D6363A3
:102CB00001F018FB2000183001F014FB042300225F
:102CC00028001149A3612461646201F02BF90F4DC2
:102CD00020602000AC66FFF7A1FB00F0DBFF0128BD
:102CE00008D172B601235B42AB65002368646B6553
:102CF00001F09EF9064B1B6870BD280001F036FA02
:102D0000F8E7C04649444C451125001064060020F0
:102D10005002002010B572B60022024B5A6401F036
:102D200013F910BD64060020024A536E0133536646
:102D30007047C04664060020F0B5D6464F4646466A
:102D4000C0B501F00FF9474C636E013B6366636EDB
:102D5000002B6BD1444B9A461B68002B66D023682E
:102D6000002B49D00023994608339846073B9C46E0
:102D7000D044E368DB68D869196A9A6A8160486060
:102D800018005668183086425FD04946996211682B
:102D9000013911605A699868D9681F1D81604860BF
:102DA0005068B8424FD0116801391160E26CD96A9D
:102DB000914200D9E16450468A0052189200861868
:102DC000F068424485689860DD6085686F60876060
:102DD0005A61B3680133B36053465B68DB6A99425A
:102DE0002DD9634623662368002BC2D1E36B1B6891
:102DF000002B2CD1013BA365E66E002E13D00127DA
:102E000007E0FFF7F3FB002800D02766013E002E05
:102E100008D0636E002BF4D0E36E013E0133E3660D
:102E2000002EF6D1E666236E002B15D1002401F0AA
:102E3000A5F82000E0BCBA46B146A846F0BD23681C
:102E4000002B96D1D2E75160ADE751609DE7E36B6F
:102E5000DB681B68A365CFE7534601245B6801F07C
:102E600075F8E4E764060020E4050020F0B5D646D6
:102E70004F464646214DC0B56B6E01336B66036805
:102E80006E6D5C180460B3420CD9A3420CD80027C5
:102E9000FFF752FF002824D03800E0BCBA46B14604
:102EA000A846F0BDA34201D8A642F0D26B6D144FE4
:102EB00098469E1BEB6BA41999462B6C78689A4632
:102EC000043001F037FA7B6879685C600431A04512
:102ED0000AD9504601F016FA0127FFF72DFF002806
:102EE000DAD101F033F8D7E7484601F00BFAAB6DC1
:102EF00001279C42CCD2AC65CAE7C04664060020DC
:102F0000E4050020F8B5CE464746040080B5002809
:102F10001BD0154D6B6E01336B66144E6F6DEB6BF2
:102F2000E41998462B6C70689946043001F002FA57
:102F3000736871685C600431A7420CD9484601F09F
:102F4000E1F9FFF7F9FE002801D100F0FFFFC0BC56
:102F5000B946B046F8BD404601F0D4F9AB6D9C428D
:102F6000EFD2AC65EDE7C04664060020E405002022
:102F7000014B586D7047C04664060020014B586DE8
:102F80007047C04664060020014B18687047C04671
:102F9000E4050020002801D034307047014B586808
:102FA000FAE7C046E405002070B5074C0500636EE3
:102FB0000133636600F0D6FFE06E4019E06600F072
:102FC000DDFFFFF7B9FE70BD64060020064B10B5AB
:102FD0005A6E002A02D1FFF709FB10BDDA6E0020FD
:102FE0000132DA66F9E7C04664060020214830B5B0
:102FF000436E002B02D00123036630BD0366C26C12
:103000001D4993009C18A4000C19A468002C1FD122
:10301000551EAB005C19A4000C19A468002C16D135
:10302000951EAB005C19A4000C19A468002C0ED1ED
:10303000D51EAB005C19A4000C19A468002C06D1A5
:10304000043A93009C18A4000C19A46800E02A001C
:103050009B189B00CD182B00EC6810336468EC6063
:103060009C4204D0E3684B60C2644B68C5E76C695E
:10307000EC60F7E764060020E4050020F8B5CE46D2
:1030800047460C001E4D80B56968183101F03AF9C9
:103090001C4E776DF36B9846336C68689946043024
:1030A00001F048F9631C15D06B686968E4195C602D
:1030B0000431A74206D9484601F024F9C0BCB946FC
:1030C000B046F8BD404601F01DF9B36D9C42F5D203
:1030D000B465F3E76A68F36A996893606A68D160D7
:1030E0006A68996804324A606A6804329A603200F9
:1030F0006B6828325A61B36A0133B362DEE7C046B7
:10310000E405002064060020F8B580234746CE463B
:103110001500274C1B0662680B4380B593616268FB
:103120004368244E9968D361626811626268996845
:1031300018324A60626818329A606368986203685D
:1031400001330360776DF36B9846336C6068994682
:10315000043001F0EFF86B1C15D063686168ED195D
:103160005D600431AF4206D9484601F0CBF8C0BCDF
:10317000B946B046F8BD404601F0C4F8B36D9D4273
:10318000F5D2B565F3E76268F36A9968936062689F
:10319000D1606268996804324A60626804329A6059
:1031A0003200636828325A61B36A0133B362DEE7E2
:1031B000E405002064060020F8B5CE4647462A4CB8
:1031C00043680D00616880B59E68CB6161680E62DE
:1031D00061689E6818317160616818319960636830
:1031E0009862036801330360002A1FD01F4D6B6D86
:1031F000EB6B2B6C6068043001F09CF86268EB6A42
:10320000996893606268D1606268996804324A6024
:10321000626804329A602A00636828325A61AB6A95
:103220000133AB62C0BCB946B046F8BD0F4E776DF6
:10323000F36BED199846336C60689946043001F0E1
:1032400079F8636861685D600431AF4207D8404631
:1032500001F058F8B36D9D42E4D2B565E2E7484607
:1032600001F050F8DEE7C046E405002064060020C7
:10327000C368F0B5DB68D869196A9A6A81604860EA
:10328000180054681830844247D0002199621168B0
:1032900001391160264A516E00292ED19868DC68E8
:1032A00059698460DC681F1D60604868B84236D088
:1032B000086801380860D06CD96A81422BD8880030
:1032C0001C4C401880002618F5688446A8689D604C
:1032D000D860A8684760AF602500083528006044C2
:1032E0005861B3680133B36063680020DB6A8B42C6
:1032F00002D2012301301366F0BD51688C68D96198
:103300001C628C686060886011680A4C0131116031
:103310009A62D96AE8E7D164D1E75160B5E70868F5
:103320004C6001380860D06CD96A8142C7D9F2E795
:1033300064060020E405002080231B06F0B50B4343
:103340008468416802690360C3688C608468616056
:103350005168814234D0002101611168D868013977
:10336000116099685A698860D8681F1D416051686A
:10337000B94227D0116801391160134AD96A9446BD
:10338000D26C914201D96246D1648A000F4C521826
:103390009200A518E86886689860DE6086687760A5
:1033A00087602000083082185A61AB680133AB6037
:1033B0006368DB6A994202D9012362461366F0BD55
:1033C0005460C8E75060D5E764060020E40500209B
:1033D00010B5040000F0C6FD034BDA6D5B6D226092
:1033E000636000F0CBFD10BD64060020024BDA6D77
:1033F0005B6D02604360704764060020F8B50D0005
:10340000040000F0AFFD104A2B68516D581C19D014
:10341000D66D27686068B74208D0884206D8002376
:1034200001242B6000F0AAFD2000F8BD0E1AB34263
:10343000F5D95B1A1B182B60D36D2360536D636045
:103440000024EFE70024EDE7640600200122014B91
:103450001A66704764060020042905D8002804D0A5
:103460001031890041184A607047014B5868F7E7EE
:10347000E4050020042909D8002804D0103189006F
:10348000411848687047024B5868F7E70020F9E791
:10349000E4050020014B58687047C046E405002051
:1034A000044B01205A6C002A03D0586E4342584105
:1034B0004000704764060020044B5A6859689069C0
:1034C0005A680423C96A5B1A93617047E4050020B7
:1034D000F0B50400C646250000B51700884600F088
:1034E00041FD1E4E16357368AA00D358002B06D135
:1034F000012273681B1964331A70002F19D100F070
:103500003DFD00F02FFD7368AD00EF58002F05D092
:103510004346002B1ED000227368EA5000237068D7
:1035200000196430037000F029FD380080BCB846F3
:10353000F0BD0B4A536E0133536600F01FFD0121AD
:103540003800FFF70BF8FFF7F7FB0028D9D100F0A0
:10355000FDFCD6E773687A1EEA50DFE7E405002039
:1035600064060020F0B5C646040000B51F0088467A
:10357000160000F0F7FC264D6868001964300378E7
:10358000022B0ED041466B68A2009B189A6D8A43AD
:103590009A6501236A68121964321370069B002B26
:1035A00024D100F0EBFC00F0DDFC002F05D023005F
:1035B0006A6816339B009B583B606B6800271B1999
:1035C00064331B78022B06D16B68A2009B189A6D9E
:1035D0000137B2439A650023686804196434237084
:1035E00000F0CCFC380080BCB846F0BD094A536EF0
:1035F0000133536600F0C2FC01210698FEF7AEFFCE
:10360000FFF79AFB0028CED100F0A0FCCBE7C04624
:10361000E405002064060020F0B5C64600B5069D0E
:1036200006000C0090461F0000F09CFC002D04D00A
:10363000230016339B009B592B6002233119643100
:103640000D780B70EDB2032F16D011D8012F45D095
:10365000022F04D1A4003419A36D0133A365012DF9
:1036600010D0012400F08AFC200080BCB846F0BDD8
:10367000042FF4D1022D3AD043461634A400A351AE
:10368000012DEED17369B168F268351D8A60516011
:103690005968A9422DD01A68013A1A60164BF26A8D
:1036A000D96C8A4200D9DA64930014489B189B00B5
:1036B000C418E1688F68B160F7608F687D608D60C5
:1036C00001000831CB187361A3680133A36043681C
:1036D000DB6A9A42C5D900F039FCC2E74746A4002C
:1036E0003419A26D1743A765012DBAD1CAE700248A
:1036F000B8E75A60CFE7C04664060020E405002022
:10370000F8B54746CE4680B5089F06000C009046A7
:103710001D0000F03DFC002F04D0230016339B0059
:103720009B593B600222331964331F781A70FFB231
:10373000032D17D012D8012D3AD0022D04D1A400A8
:103740003419A36D0133A365012F11D0012400F0BA
:1037500023FC2000C0BCB946B046F8BD042DF3D10F
:10376000022F5BD043461634A400A351012FEDD1A4
:103770002C4B5A6E002A24D05A689168F26131624B
:10378000310094681831616091601A68264C0132EA
:103790001A60F26AB3626168C96A9142D6D2099A24
:1037A000002A02D0110001220A6001221A66CDE728
:1037B0004346A4003419A26D1A43A265012FC5D156
:1037C000D6E7B468F1687269A1604C60341DA04608
:1037D0005468444524D0116801391160D96CF26AEB
:1037E0008A4200D9DA6491000F4C89188900894611
:1037F000A446CC4461464746CD68A968B560F160EF
:10380000A9684F60AF6025000835290049447161FF
:103810006146654689680131A960BCE7002496E7E6
:103820005160D8E764060020E4050020F0B5D646D4
:1038300046464F460C000500C0B5160000F0A8FB38
:1038400002212B196433A4001A782C191970A36D66
:103850000133A365012A06D000F09EFBE0BCBA4606
:10386000B146A846F0BD284B5A6E002A19D05A68B6
:103870009168EA6129622900946818316160916059
:103880001A68224C01321A60EA6AAB626168C96A3E
:103890009142E1D2002E01D00122326001221A664B
:1038A000DAE7AC68E9686A69A1604C602C1DA4463F
:1038B0005468644525D0116801391160D96CEA6AF1
:1038C0008A4200D9DA649100104C8918890067187F
:1038D0008A46F968B8468946A96089686746E960FA
:1038E000494689684F6061464F46B96027000837EE
:1038F0003900514469614146454689680131A960F2
:10390000C4E75160D7E7C04664060020E405002004
:1039100070B504000D0000280DD06419643400F067
:1039200021FB23780025022B01D12570013500F001
:1039300025FB280070BD014B5C68EEE7E405002024
:1039400070B504000D00160000280BD000F00AFB33
:10395000A8002018846D836DB343836500F00EFBCF
:10396000200070BD014B5C68F0E7C046E405002014
:10397000F0B54546DE4657464E46E0B5C34D87B0E6
:103980002B681C68002C00D1DBE0DB681C68FFF7AB
:10399000CBF9FFF7EDFA6B688146984200D2DFE081
:1039A0006860844200D833E100224B46E868E11A9F
:1039B00001F06CFDFFF7C0F9002800D11AE10C22DC
:1039C000002103A8FEF7EEF924239A460022E868B6
:1039D00003A900F0ABFF0028D2D0039B0193002B7A
:1039E000F4DB059B98465B69002B03D04346181D0A
:1039F00000F0A0FCFFF7BCFA6B68834698420FD337
:103A00005B466B60039B092BE0D8A14A9B00D3580F
:103A10009F46012293435246A3542000236A9847AD
:103A20002B681A68002A00D1E0E0DB68DC681E68B9
:103A3000231D1800994600F07DFC53460422E35CE8
:103A40001A42E6D0A3692461F718F6436760B342CF
:103A50000AD83E00F643236A20009847A3692461F0
:103A6000FF186760B342F4D94946A86800F04AFCE1
:103A7000D3E743465246985C0123424651464446AA
:103A8000034353549269049924618B1863605B4526
:103A900000D9B2E05C46611A8A4200D9EFE04107E2
:103AA00014D4012352469843434698544346404613
:103AB0001B6A98478AE75946CB1A934200D2D8E04E
:103AC0004046036A984743469A69230041469C183A
:103AD0004C600961A345EED29B4501D2A342EFD9C8
:103AE00043462868191D00F00DFCDFE743465246A7
:103AF0009B5C0122514693434246535466E752462B
:103B000043469B5C01225146134342465354049B57
:103B1000414693615A469A184A6009615A4571D8DC
:103B2000002B00D152E7A868043100F0EBFB4DE711
:103B3000434652469B5C9A07DBD4404600F016FB96
:103B400044E7FFF7F1F8FFF713FA6B6881469842F4
:103B500006D34B466B60AB681A6853425A4124E760
:103B60002B681A68002A39D024229246203A9346BC
:103B70000AE0012293435246A354236A2000984747
:103B80002B681A68002A29D0DB68DC681E68231DB0
:103B90001800984600F0CEFB53465A46E35C1A42A2
:103BA000E7D0A3692461F718F6436760B3420AD8E7
:103BB0003E00F643236A20009847A3692461FF185A
:103BC0006760B342F4D94146A86800F09BFB236AC2
:103BD000200098472B681A68002AD5D1AA68AB60E4
:103BE0004B462A606B60FFF7A7F8E8E6AA68AB606F
:103BF0002A6005E700F0AAF9E1E6594502D99942A1
:103C000000D84CE741462868043100F07BFBDDE634
:103C1000FFF792F82B68DB68DE68331D18009846C2
:103C200000F088FB2422B35C59070ED401218B439A
:103C3000B3543000336A9847C1E64A46141BA34286
:103C400012D83000336A98473C00B3693661E718F0
:103C50007760B945F1D2A14501D2BC42F1D94146C4
:103C6000286800F04FFBE4E74146A86800F04AFBF3
:103C7000DFE74346A868191D00F044FB16E74146FC
:103C8000A868043100F03EFBA0E6C046D406002040
:103C9000E456001070B582B000F064F9174CE36888
:103CA000002B12D000F06AF9E3680020002B0AD044
:103CB00003238022383400931149002311480194D2
:103CC0005200FEF729FD02B070BD26002500103617
:103CD0003000243500F0FAFA280000F0F7FA00224C
:103CE0000C210A202660A56000F086FBE060002819
:103CF000D8D0054901F0C8FAD4E7C046D406002060
:103D000014570010713900100C570010F8B54546D3
:103D1000DE4657464E46E0B5070028208846160086
:103D20001D0000F0A7F9041E1BD024230022C2545A
:103D300000F018F91D4B9946DB68002B18D000F0F5
:103D40001DF94346A3610A9B2760E5612362201D9C
:103D500000F0C8FA002E04D024220421A35C0B43F7
:103D6000A3542000F0BCBB46B246A946A046F8BD0D
:103D700010334B4418009B4600F0A8FA24234B4410
:103D800018009A4600F0A2FA4B465A461A6052466C
:103D90000C219A600A20002200F02EFB4B46D860CE
:103DA0000028CCD0024901F06FFAC8E7D406002001
:103DB0000C57001010B50F4C84B0E368002B04D0F2
:103DC000019102920390052902DD002004B010BD8C
:103DD000FFF766FB022806D000230022E06801A955
:103DE00000F056FBF2E70023E068069A01A900F014
:103DF0004FFBEBE7D406002030B51C00094B85B023
:103E0000DD68002D04D0019102920390052902DCA7
:103E1000002005B030BD00232200280001A900F0D9
:103E2000C3FCF6E7D4060020014B986B7047C046F0
:103E3000D40600208069704770B504000D0000F0C2
:103E400091F824230422E35C002D05D0134324229F
:103E5000A35400F093F870BD9343F8E710B5040045
:103E600000F080F82423E45C00F088F86407E40F95
:103E7000200010BD10B5040000F074F82423E45CA9
:103E800000F07CF86407E40F200010BD4068704724
:103E90000068704710B5040000F064F82423E35C68
:103EA00001241C4000F06AF8200010BD10B5040089
:103EB00000F058F8E46900F061F8200010BDC04639
:103EC00070B50D00040000F04DF8E56100F056F803
:103ED00070BDC046000000000000000000000000AF
:103EE000002382B0019372B6019B002BFCD002B07C
:103EF0007047C0460A4A13681868203080F3098862
:103F0000022080F31488BFF36F8F3FBCAE4608BC1D
:103F100004BC62B61847C046C046C046C046C0464C
:103F2000E805002010B58024031F64041C60043BD6
:103F300019600349043B1960143B40381A6010BDF6
:103F4000E13E00107047C0467047C0468022044BD7
:103F500052051A60BFF34F8FBFF36F8F7047C04693
:103F600004ED00E072B6044A136801331360BFF336
:103F70004F8FBFF36F8F704754020020034A1368BE
:103F8000013B1360002B00D162B670475402002041
:103F9000EFF3108072B6704780F310887047C04608
:103FA000EFF309800E4B1A6820381060F0C04446C9
:103FB0004D4656465F46F0C008B572B6FFF716F894
:103FC00062B60CBC116808681030F0C8A046A9465B
:103FD000B246BB4680F309882038F0C81847C0466F
:103FE000E805002010B5FFF7D3FF0400FEF7EEFF51
:103FF000002803D08022034B52051A602000FFF7EF
:10400000CBFF10BD04ED00E00022054B05491A600E
:104010000A60054A0549116003221A607047C046CC
:1040200010E000E018E000E014E000E0E70300002A
:10403000FF220E4B1204196810B50A431A60FF22C2
:104040000024196812060A4382B01A60FFF7DCFFE9
:10405000074B1C60FFF74EFFFEF7C8FF019472B6D6
:10406000019B002BFCD0002002B010BD20ED00E031
:1040700054020020F0B5C646431E00B50A3314D8DA
:1040800007231A00083004000240034205D0013320
:104090009B1ADA43824208D3C418FEF745FE304823
:1040A00025008668002E25D10EE0FEF73DFE2C4847
:1040B0008368002B06D00026FEF73EFE300080BC51
:1040C000B846F0BD002500240721264A114241D1FF
:1040D000254B1100D618130007270022083EBE43C7
:1040E000F31A426001607260326086604B600E605D
:1040F000C3600361002DDEDD0769A742DBD3050045
:10410000036804E01A68002A04D01D0013005968EF
:10411000A142F7D3B342CED01E001A6808369046AB
:104120002A600A1B102A05D919194A6042460A60FA
:1041300029602100C2687F1A0761974200D2C760D8
:10414000802212061143002259601A60436901332C
:104150004361B1E7D31D8B43034956181900BBE7F0
:10416000100700202C07002050C30000F8B50028DD
:1041700007D0083843680400002B02DA0268002ADE
:1041800000D0F8BD5B005B0843600500FEF7CCFD86
:10419000144960680B691B180B610B001A001B683F
:1041A0009C42FBD856689719BC4216D02C18A342E3
:1041B00009D02B60AA4200D015608B6901338B6156
:1041C000FEF7BAFDDDE78C68A342F2D05C681B689D
:1041D000A446604468602B60ECE7801915005060CD
:1041E000E4E7C04610070020014B18697047C0463D
:1041F00010070020014BD8687047C0461007002008
:104200007047C04670B5041E06D00B0C020C002B84
:104210000ED10D1C002A0FD14C432000FFF72AFFBE
:10422000051E03D022000021FDF7BCFD280070BD53
:10423000002A0BD11A1C251C8BB2A0B25843ADB278
:1042400093B26B43000C1B181B0CE5D00025EDE767
:10425000F0B5C64600B50700FEF766FD1A4B984656
:104260001B68002B2AD042460125916800260024B5
:104270006D428B420AD05A680134964200D2160031
:10428000954200D915001B688B42F4D1FEF754FD0E
:104290007E60BD60FC60FFF765FE43461B693B60C6
:1042A00043465B697B6143469B69BB614346DB6870
:1042B0003B61FFF763FE80BCB846F0BD01250026D8
:1042C00000246D42E2E7C0461007002003000833D7
:1042D00001224360C3600361002352428260036095
:1042E0007047C046002303617047C04643689A6820
:1042F0004B608A609A685160996003680861013375
:1043000003607047030030B50C680833621C0DD0A1
:104310001A005B681D68A542FAD94B609960036872
:104320008A60013351600861036030BD02695368DF
:10433000F3E7C0460369416882688A605160596842
:10434000814206D0002202611A68013A1A60186898
:1043500070475A60F6E7C04670B504000D000028AB
:1043600032D0C36B0020002B20D0216C180C0A0C1B
:104370001DD100282AD1FFF7F5FD216CE36B2268DF
:104380004B43D0185B1AD318A0606260E3604422EC
:10439000FF230020A063A3540132A354002D18D1A1
:1043A0002369002B1ED1FFF7E9FD012070BD002815
:1043B0000AD1181C89B29BB24B4380B292B24243DD
:1043C0001B0CD3181B0CD6D00020EFE7021C081CD6
:1043D000F0E720001030FFF779FF20002430FFF7CE
:1043E00075FFE0E720001030FEF742FF0028DAD02A
:1043F000FFF7ACFDD7E7C04670B505000E000028FA
:1044000043D00B0C020C002B31D1331C002A32D1CB
:10441000300068430300493337D84830FFF72AFE9D
:10442000041E32D00300002E00D048332360E56321
:104430002664FFF797FD216CE36B22684B43D0188D
:10444000A06000205B1AD3186260E3604422FF235F
:10445000A0632000A3540132A3541030FFF736FFAD
:1044600020002430FFF732FFFFF788FD0EE0002A1E
:104470000BD11A1C031CB0B2A9B2414398B293B23B
:104480004343090C5B181B0CC2D00024200070BDF4
:10449000F0B5CE4647460400060080B585B0994683
:1044A00001928846FFF75EFDA36BE26B0025243680
:1044B00093427CD34B46022B00D1E1E0019B002BC1
:1044C00000D1F9E0002D00D1D6E0FFF757FDFEF74F
:1044D0002BFCFFF747FD4422A35C5BB2013301D103
:1044E0000023A3544522A35C5BB2013301D1002316
:1044F000A354FFF743FD01A902A8FEF77FFF0028A0
:1045000000D0DDE0FFF72EFDA36BE26B934261D09C
:10451000FFF734FDFFF726FD4523E55C6DB2002D66
:1045200005DC13E0013DEBB26DB2002B0ED0636AE7
:10453000002B0BD03000FEF79BFE0028F2D0013D8F
:10454000FEF784FFEBB26DB2002BF0D14523FF22C2
:10455000E254FFF713FDFFF705FD44232700E55C58
:1045600010376DB2002D05DC13E0013DEBB26DB2EA
:10457000002B0ED02369002B0BD03800FEF778FEFD
:104580000028F2D0013DFEF761FFEBB26DB2002BC7
:10459000F0D14423FF22E254FFF7F0FCFEF7CCFBFE
:1045A0000125FFF7DFFCA36BE26B934282D2226C02
:1045B000A56B002A00D0CDE00135A563636A002B0E
:1045C00000D0DBE0FFF7DAFC012005B0C0BCB94643
:1045D000B046F0BD27001037FFF7D0FC3800019936
:1045E000FEF74CFDFFF7BEFC4523E55C6DB2002DE8
:1045F00005DC13E0013DEAB26DB2002A0ED0636A19
:10460000002B0BD03000FEF733FE0028F2D0013D26
:10461000FEF71CFFEAB26DB2002AF0D14523FF225B
:10462000E254FFF7ABFCFFF79DFC4423E55C6DB261
:10463000002D05DC13E0013DEAB26DB2002A0ED078
:104640002369002B0BD03800FEF712FE0028F2D0B1
:10465000013DFEF7FBFEEAB26DB2002AF0D1442321
:10466000FF22E254FFF78AFCFEF766FB002897D191
:10467000FFF76CFC012594E702A8FEF7B7FE24E7DC
:10468000226CA56B002A97D04146E068FDF790FBAD
:10469000E168236C5A42CB1A2168E3608B4207D24F
:1046A000A3689C466244E2604B46022B00D083E73D
:1046B000002D00D081E77FE7FFF760FC002084E752
:1046C000FFF750FC45232600E55C24366DB2002D33
:1046D00005DC13E0013DEAB26DB2002A0ED0636A38
:1046E000002B0BD03000FEF7C3FD0028F2D0013DB7
:1046F000FEF7ACFEEAB26DB2002AF0D14523FF22EC
:10470000E254FFF73BFCFFF72DFC44232600E55C59
:1047100010366DB2002D05DC13E0013DEAB26DB23A
:10472000002A0ED02369002B0BD03000FEF7A0FD2D
:104730000028F2D0013DFEF789FEEAB26DB2002AF0
:10474000F0D14423FF22E254FFF718FCFEF7F4FAFD
:1047500000203AE74B464146002B19D16068FDF72F
:1047600027FB226C63689446A268634463609342AB
:1047700000D221E72368013563601EE72000243062
:10478000FEF776FD002800D11CE7FFF7DFFB19E7F5
:10479000E068FDF70DFBE168236C5A42CB1A2168F3
:1047A000E3608B4280D27BE7F0B54F46D646464663
:1047B000C0B5040099460F009046FFF7E9FBE36B94
:1047C0000500A06B984237D34B46022B09D000243A
:1047D0002800FFF7E1FB2000E0BCBA46B146A8463E
:1047E000F0BD4523226CE65CA36BA36B76B29A46C0
:1047F000002A2AD03900E068FDF7DAFAE168236C74
:104800005A42CB1A2168E3608B4249D2A3689C4686
:104810006244E2604B46022B42D053460133A3630D
:10482000731C16D0FEF7B0FB864215D24523013625
:1048300076B2E6540124CBE74523226CE65CA36BF9
:10484000A36B76B29A46002A08D10133A363731C86
:10485000E8D1636A002B15D10124B9E74B46390032
:10486000002B21D16068FDF7A3FA226C636894469F
:10487000A268634463609342CFD323686360534666
:104880000133E3E720002430FEF7F2FC0028E3D0F8
:104890004346002BE0D0012342460124136097E7F2
:1048A0005346002BD2D1D0E7E068FDF781FAE168EA
:1048B000236C5A42CB1A2168E3608B42AAD2A5E747
:1048C000F0B5C646040000B50E00FFF761FBA36B10
:1048D000E26B050000279A420BD94522A75C013301
:1048E0007FB29046A3637B1C0AD1636A002B11D16F
:1048F00001272800FFF750FB380080BCB846F0BD08
:10490000FEF742FB8742F3D2434601377FB2E754BA
:104910000127EEE720002430FEF7AAFC0028E7D0AC
:10492000002EE5D0012301273360E2E7F0B5CE4643
:104930004746040080B585B088460192FFF712FB18
:10494000A56B002D00D01FE1019B002B00D1CBE017
:10495000260002A8FEF74AFD44272436FFF70EFB87
:10496000FEF7E2F9FFF7FEFAE35D5BB2013301D136
:104970000023E3554522A35C5BB2013301D1002340
:10498000A354FFF7FBFA01A902A8FEF737FD0028A0
:1049900055D1FFF7E7FAA36B002B00D0ACE0FFF78F
:1049A000EDFA30000199FEF769FBFFF7DBFA4523CA
:1049B000E55C6DB2002D05DC13E0013DEAB26DB29D
:1049C000002A0ED0636A002B0BD03000FEF750FC9B
:1049D0000028F2D0013DFEF739FDEAB26DB2002A9F
:1049E000F0D14523FF22E254FFF7C8FAFFF7BAFAE5
:1049F00010239946E55DA1446DB2002D05DC13E05E
:104A0000013DEAB26DB2002A0ED02369002B0BD013
:104A10004846FEF72DFC0028F2D0013DFEF716FDBA
:104A2000EAB26DB2002AF0D1FF23E355FFF7A6FAF0
:104A3000FEF782F900284ED1FFF788FA4BE0FFF726
:104A400091FA4523E55C6DB2002D05DC13E0013DD4
:104A5000EAB26DB2002A0ED0636A002B0BD0300090
:104A6000FEF706FC0028F2D0013DFEF7EFFCEAB2AB
:104A70006DB2002AF0D14523FF22E254FFF77EFAFF
:104A8000FFF770FA10239946E55DA1446DB2002D41
:104A900005DC13E0013DEAB26DB2002A0ED02369B5
:104AA000002B0BD04846FEF7E3FB0028F2D0013D77
:104AB000FEF7CCFCEAB26DB2002AF0D1FF23E35539
:104AC000FFF75CFAFEF738F9FFF74CFAA36B002BFF
:104AD0000AD0FFF753FAFFF745FAA56B002D53D123
:104AE000019B002B00D039E7FFF748FA002005B002
:104AF000C0BCB946B046F0BDFFF740FAFFF732FA46
:104B00004523E55C6DB2002D05DC13E0013DEAB202
:104B10006DB2002A0ED0636A002B0BD03000FEF776
:104B2000A7FB0028F2D0013DFEF790FCEAB26DB27F
:104B3000002AF0D14523FF22E254FFF71FFAFFF7C6
:104B400011FA10239946E55DA1446DB2002D05DCF4
:104B500013E0013DEAB26DB2002A0ED02369002BAA
:104B60000BD04846FEF784FB0028F2D0013DFEF74B
:104B70006DFCEAB26DB2002AF0D1FF23E355FFF7D6
:104B8000FDF9FEF7D9F8A6E7226C002A08D0E36801
:104B90009918A368E16099420BD24046FDF708F9E5
:104BA000013DA5632369002B06D1FFF7E7F901203A
:104BB0009DE72168E160F0E720001030FEF758FB28
:104BC0000028F2D0FFF7C2F9EFE7C046F0B5C646BD
:104BD000040000B584B00191FFF7C4F9A36B002B6A
:104BE00000D022E1019B002B00D1CBE0260002A8DF
:104BF000FEF7FCFB44272436FFF7C0F9FEF794F8D4
:104C0000FFF7B0F9E35D5BB2013301D10023E35557
:104C10004522A35C5BB2013301D10023A354FFF70B
:104C2000ADF901A902A8FEF7E9FB002855D1FFF76D
:104C300099F9A36B002B00D0ABE0FFF79FF9300090
:104C40000199FEF71BFAFFF78DF94523E55C6DB27C
:104C5000002D05DC13E0013DEAB26DB2002A0ED052
:104C6000636A002B0BD03000FEF702FB0028F2D065
:104C7000013DFEF7EBFBEAB26DB2002AF0D145230D
:104C8000FF22E254FFF77AF9FFF76CF9E55D6DB2A8
:104C9000002D17DD10239846A04404E0013DEAB240
:104CA0006DB2002A0ED02369002B0BD04046FEF7D0
:104CB000DFFA0028F2D0013DFEF7C8FBEAB26DB280
:104CC000002AF0D1FF23E355FFF758F9FEF734F837
:104CD00000284ED1FFF73AF94BE0FFF743F945239F
:104CE000E55C6DB2002D05DC13E0013DEAB26DB26A
:104CF000002A0ED0636A002B0BD03000FEF7B8FA02
:104D00000028F2D0013DFEF7A1FBEAB26DB2002A05
:104D1000F0D14523FF22E254FFF730F9FFF722F9E3
:104D2000E55D6DB2002D17DD10239846A04404E028
:104D3000013DEAB26DB2002A0ED02369002B0BD0E0
:104D40004046FEF795FA0028F2D0013DFEF77EFBC3
:104D5000EAB26DB2002AF0D1FF23E355FFF70EF956
:104D6000FDF7EAFFFFF7FEF8A36B002B0AD0FFF771
:104D700005F9FFF7F7F8A36B002B56D1019B002B29
:104D800000D039E7FFF7FAF8002004B080BCB8463D
:104D9000F0BDFFF7F3F8FFF7E5F84523E55C6DB2EA
:104DA000002D05DC13E0013DEAB26DB2002A0ED001
:104DB000636A002B0BD03000FEF75AFA0028F2D0BD
:104DC000013DFEF743FBEAB26DB2002AF0D1452364
:104DD000FF22E254FFF7D2F8FFF7C4F8E55D6DB2A9
:104DE000002D17DD10239846A04404E0013DEAB2EF
:104DF0006DB2002A0ED02369002B0BD04046FEF77F
:104E000037FA0028F2D0013DFEF720FBEAB26DB27E
:104E1000002AF0D1FF23E355FFF7B0F8FDF78CFF30
:104E2000FFF7A0F8A36B002BA8D0013BA363236975
:104E3000002B03D1FFF7A2F80120A6E720001030D5
:104E4000FEF716FA0028F5D0FFF780F8F2E7C04623
:104E5000F0B5CE464746040080B585B0884601923D
:104E6000FFF780F8A36B002B00D01FE1019B002B04
:104E700000D1CBE0260002A8FEF7B8FA442724367A
:104E8000FFF77CF8FDF750FFFFF76CF8E35D5BB2CE
:104E9000013301D10023E3554522A35C5BB201330A
:104EA00001D10023A354FFF769F801A902A8FEF776
:104EB000A5FA002855D1FFF755F8A36B002B00D0B9
:104EC000ACE0FFF75BF830000199FEF7D7F8FFF789
:104ED00049F84523E55C6DB2002D05DC13E0013D8A
:104EE000EAB26DB2002A0ED0636A002B0BD03000FC
:104EF000FEF7BEF90028F2D0013DFEF7A7FAEAB2AC
:104F00006DB2002AF0D14523FF22E254FFF736F8B4
:104F1000FFF728F810239946E55DA1446DB2002DF6
:104F200005DC13E0013DEAB26DB2002A0ED0236920
:104F3000002B0BD04846FEF79BF90028F2D0013D2C
:104F4000FEF784FAEAB26DB2002AF0D1FF23E355EE
:104F5000FFF714F8FDF7F0FE00284ED1FEF7F6FF3C
:104F60004BE0FEF7FFFF4523E55C6DB2002D05DC4D
:104F700013E0013DEAB26DB2002A0ED0636A002B45
:104F80000BD03000FEF774F90028F2D0013DFEF797
:104F90005DFAEAB26DB2002AF0D14523FF22E25455
:104FA000FEF7ECFFFEF7DEFF10239946E55DA14416
:104FB0006DB2002D05DC13E0013DEAB26DB2002AAE
:104FC0000ED02369002B0BD04846FEF751F900287C
:104FD000F2D0013DFEF73AFAEAB26DB2002AF0D102
:104FE000FF23E355FEF7CAFFFDF7A6FEFEF7BAFF63
:104FF000A36B002B0AD0FEF7C1FFFEF7B3FFA36B34
:10500000002B53D1019B002B00D039E7FEF7B6FFF0
:10501000002005B0C0BCB946B046F0BDFEF7AEFFFB
:10502000FEF7A0FF4523E55C6DB2002D05DC13E023
:10503000013DEAB26DB2002A0ED0636A002B0BD09C
:105040003000FEF715F90028F2D0013DFEF7FEF919
:10505000EAB26DB2002AF0D14523FF22E254FEF7F6
:105060008DFFFEF77FFF10239946E55DA1446DB2E9
:10507000002D05DC13E0013DEAB26DB2002A0ED02E
:105080002369002B0BD04846FEF7F2F80028F2D037
:10509000013DFEF7DBF9EAB26DB2002AF0D1FF2341
:1050A000E355FEF76BFFFDF747FEA6E7226CE568C8
:1050B000002A07D0A368A918E16099420AD24046A5
:1050C000FCF776FE636AE560002B06D1FEF756FF1B
:1050D00001209EE72168E160F1E720002430FEF71F
:1050E000C7F80028F2D0FEF731FFEFE7F8B5CE465B
:1050F0004746040080B589469046FEF749FFA66BF7
:1051000005000027002E07D12800FEF745FF3800D4
:10511000C0BCB946B046F8BD4423226CE75C7FB200
:10512000002A0AD0E3689918A368E160994201D384
:105130002168E1604846FCF73BFE013EA6637B1C0C
:1051400004D12369002B0BD10127DDE7FDF71CFFFC
:105150008742F9D2442301377FB2E7540127D3E7CE
:1051600020001030FEF784F80028EDD04346002BD5
:10517000EAD00123424601271360C5E7F8B50400D1
:105180000F00FEF705FFA36B05000026002B04D1DE
:105190002800FEF701FF3000F8BD226CE668002A07
:1051A00009D0A368B118E160994201D32168E16098
:1051B0003800FCF7FDFDE6600126E9E710B50400C4
:1051C000FEF7D0FEA46BFEF7D9FE200010BDC0464E
:1051D00010B50400FEF7C6FEA36BE46BE41AFEF7FD
:1051E000CDFE200010BDC046806B70471E4B70B5D1
:1051F0005A6890421DD0DA68904222D05A69904293
:1052000021D0DA69904220D05A6A90421FD0DA6ADF
:1052100090421ED05A6B90421DD0DA6B90421CD047
:105220005A6C90421BD0DA6C90421AD0FEF79EFF67
:1052300070BD002200240025D2009B181C605D6018
:10524000F4E70122F6E70222F4E70322F2E7042260
:10525000F0E70522EEE70622ECE70722EAE708225C
:10526000E8E70922E6E7C04678020020006C7047B4
:10527000C06B7047806B434258417047836BC06B73
:10528000C01A43425841704770B500290FD000261C
:105290000023424CDA00A5186D68854200D16FE00A
:1052A000002E05D001330A2BF4D13160706070BD3F
:1052B000A558002D61D05D1C092BF8D0EA00A61876
:1052C0007668B0425CD0A658002E5DD09D1C082B9D
:1052D000EDD0EA00A6187668B04251D0A658002E4C
:1052E00052D0DD1C072BE2D0EA00A6187668864271
:1052F00046D0A658002E47D01D1D062BD7D0EA0059
:10530000A6187668B0423BD0A658002E3CD05D1D52
:10531000052BCCD0EA00A6187668B04230D0A6584B
:10532000002E31D09A1D042BC1D0D50066197668A5
:10533000B04224D06559002D29D0DD1D032BB6D0F5
:10534000EA00A6187668B0421AD0A658002E1BD0E4
:105350000135022BABD0EA00A6187668B0420FD018
:10536000A658002E10D0012BA1D0E36C984212D089
:10537000A36C002B9BD109234822A61892E7D200E8
:10538000A6183160706092E72B00A6188AE7130018
:10539000D200A61886E74822A618F2E77802002075
:1053A0001B4A0300516888421CD0D16888421DD036
:1053B000516988421CD0D16988421BD0516A884209
:1053C0001AD0D16A884219D0516B884218D0D16B5B
:1053D000884217D0516C884216D0D16C0020994277
:1053E00014D070470023DB00D058FAE70123FAE716
:1053F0000223F8E70323F6E70423F4E70523F2E7A3
:105400000623F0E70723EEE70823ECE70923EAE7A2
:10541000780200201C4B5A6890421BD0DA689042F8
:1054200020D05A6990421FD0DA6990421ED05A6A41
:1054300090421DD0DA6A90421CD05A6B90421BD029
:10544000DA6B90421AD05A6C904219D0DA6C8242D0
:1054500018D07047002200200021D2009B1818604D
:105460005960F6E70122F6E70222F4E70322F2E7A9
:105470000422F0E70522EEE70622ECE70722EAE73E
:105480000822E8E70922E6E77802002070B5050067
:1054900016000C00FEF766FD4422AB5C5BB20133E4
:1054A00001D10023AB544522AB5C5BB2013301D187
:1054B0000023AB54FEF762FDAB6B002B46D0FEF72A
:1054C00051FD4523EC5C64B2002C16DD2E00243621
:1054D00004E0013CE2B264B2002A0ED06B6A002BF9
:1054E0000BD03000FDF7C4FE0028F2D0013CFDF7E0
:1054F000ADFFE2B264B2002AF0D14523FF22EA54A4
:10550000FEF73CFDFEF72EFD4423EC5C64B2002C5C
:1055100016DD2E00103604E0013CE2B264B2002A2F
:105520000ED02B69002B0BD03000FDF7A1FE002818
:10553000F2D0013CFDF78AFFE2B264B2002AF0D15A
:105540004423FF22EA54FEF719FD70BD2800320003
:1055500021002430FDF730FEB1E7C04610B58307C7
:105560000AD00300032102E001330B4205D01A7870
:10557000002AF9D1181A10BD030019680C4A0D4C05
:105580008A188A4322420FD15968094A04338A187B
:105590008A43224208D15968054A04338A188A434B
:1055A0002242F1D000E001331A78002AFBD1E1E772
:1055B000FFFEFEFE80808080F8B5C046000000003F
:1055C00001B40248844601BC604700BF5D01002071
:1055D00001B40248844601BC604700BF8501002039
:1055E00001B40248844601BC604700BFC1000020EE
:1055F0004C45445F5461736B000000004861726465
:105600007761726520616C61726D20256420616C28
:10561000726561647920636C61696D656400000086
:105620000A2A2A2A2050414E4943202A2A2A0A00BF
:105630000A0000004861726420617373657274002F
:1056400052656C6561736500626F6F74325F7732AB
:105650003571303830000000312E352E3100000019
:105660007069636F00000000626C696E6B0000007F
:105670004465632031362032303233000600525008
:10568000BBFF3CB66056001006005250E182887F96
:105690004856001006005250D3F075424056001094
:1056A0000D0A00005541525420737464696E000065
:1056B00055415254207374646F75740055415254AF
:1056C00020737464696E202F207374646F75740086
:1056D0000600525053B4F4A1BC56001008005250BA
:1056E00092000000CC390010723A0010723A00109B
:1056F000EC3A0010FE3A0010303B0010723A0010F5
:10570000723A0010EC3A0010FE3A0010546D7251DB
:0C57100000000000546D7220537663000E
:10571C00AC020010A0020010940200107C56001085
:10572C00880200108856001094560010D0560010B5
:04573C00DC56001027
:10574000F0B5C646150000B504001E000268EFF370
:10575000108172B61368002BFCD0BFF35F8F042357
:10576000E356002B2DDB2268BFF35F8F0020106013
:1057700081F31088D0221206127852B290469A42D3
:1057800003D1002080BCB846F0BD00270BE02368A1
:10579000BFF35F8F1F6081F310882800310000F095
:1057A00033F80028EDD12268EFF3108172B6136848
:1057B000002BFCD0BFF35F8F23797F2BE7D94346C3
:1057C00002E0D0231B061B6823712368BFF35F8FA1
:1057D00000221A6081F310880120D3E70268EFF3FA
:1057E000108172B61368002BFCD0BFF35F8FFF23CC
:1057F00003710368BFF35F8F00221A6081F3108882
:1058000040BF70477047C04601B40248844601BC9F
:10581000604700BF710D0010100000000000000084
:105820000000010000000000000000000000020075
:105830000000000000000000000003000000000065
:10584000000000000000FF000000000001B54868F3
:1058500001318E460047704609380149884701BD2D
:105860004D070010FC01002000000000C8020020CD
:10587000BCCA00200000000000000000CCCA0020CC
:105880000000000000000000100000000000000008
:10589000503300004C3300005433000052330000FA
:1058A0004D5300004D4300005334000043340000CA
:1058B0008D20001000000000D9200010852100106C
:1058C0000000000000010000004004400000000053
:1058D00003000000AAAAAAAA00000000000000001D
:1058E000951D0010851B0010451C0010051D0010A3
:0458F0003103001070
:04000005100001E9FD
:00000001FF
