:020000041000EA
:1000000000B5324B212058609868022188439860DF
:10001000D860186158612E4B002199600221596106
:100020000121F02299502B49196001219960352056
:1000300000F044F80222904214D00621196600F024
:1000400034F8196E01211966002018661A6600F04E
:100050002CF8196E196E196E052000F02FF8012189
:100060000842F9D1002199601B49196000215960AB
:100070001A491B48016001219960EB211966A021F2
:10008000196600F012F800219960164914480160C1
:100090000121996001BC002800D000471248134993
:1000A000086003C880F30888084703B5996A0420EC
:1000B0000142FBD001200142F8D103BD02B5186610
:1000C0001866FFF7F2FF186E186E02BD00000240BE
:1000D000000000180000070000035F00212200005C
:1000E000F4000018222000A00001001008ED00E03C
:1000F00000000000000000000000000074B24E7A12
:1001000000200420F7010010C3010010C5010010F9
:10011000C1010010C1010010C1010010C101001097
:10012000C1010010C1010010C10100109563001051
:10013000C1010010C1010010F1630010356400100E
:10014000CD010010CD010010CD010010CD01001037
:10015000CD010010CD010010CD010010CD01001027
:10016000CD010010CD010010CD010010CD01001017
:10017000CD010010CD010010CD010010CD01001007
:10018000CD010010CD010010CD010010CD010010F7
:10019000CD010010CD010010CD010010CD010010E7
:1001A000CD010010CD010010CD010010CD010010D7
:1001B000CD010010CD010010CD010010CD010010C7
:1001C00000BE00BE00BE00BE00BE00BEEFF3058054
:1001D000103800BEF2EB8871587E0010787E001057
:1001E0003402001090A31AE700201F49086006C8D7
:1001F00081F3088810471D48006800282FD10DA4FE
:100200000ECC002902D000F012F8F9E71849194A7B
:10021000002000E001C19142FCD1174988471749ED
:1002200088471749884700BEFDE701C901C29A42C5
:10023000FBD37047787E0010C0000020200F002004
:10024000D88C00100000042000000420D88C00107E
:10025000001004200010042000000000704709482E
:1002600001F01EFE0047000008ED00E0000000D095
:10027000200F002090E10020191D0010F103001054
:100280000D1E00105756000006005250ABB36053CD
:10029000E47B001006005250861C0302F47B001021
:1002A000060052505422A29DFC7B001005005250C3
:1002B000DE65F468D88C0010F8B5C0460448054BDC
:1002C00010B5834203D0044B002B00D0984710BDDB
:1002D000200F0020200F00200000000006480749E2
:1002E000091A8B10C90FC91810B5491003D0044B57
:1002F000002B00D0984710BD200F0020200F0020B9
:100300000000000010B5074C2378002B09D1FFF73F
:10031000D5FF054B002B02D0044800E000BF0123AD
:10032000237010BD7812002000000000D07A001069
:10033000054B10B5002B03D00449054800E000BF71
:10034000FFF7CCFF10BDC046000000007C1200206B
:10035000D07A0010F0B5D6464F4646460023C0B5C9
:100360001D4D84B01D49280003AC238004F0F0F932
:100370000321002000F052F80321012000F04EF884
:1003800000220121002000F061F80022012101205B
:1003900000F05CF8124B00269846124B124F99461B
:1003A000124B9A4606E0484601F0D4FFFA2080003E
:1003B00000F0DCFE404601F0CDFF02232780220042
:1003C00077212800009604F0EDF9831CEBD050460D
:1003D00001F0C0FFEAE7C046F00E0020A086010051
:1003E000D07A0010F07A001001020000187B001093
:1003F00000B583B001F0E4FF0023802201930133B4
:100400000449009352000023034804F0B1FB04F0B8
:1004100061FEFEE7407B001055030010094A83008F
:1004200094464022634410B51C68C0006240C0245A
:1004300014408022520113431C60034B9C466044CD
:10044000416010BD04C00140004001400A4B8000E3
:100450009C4604236044002901D00C230821002A73
:1004600000D10B00026853400C221A4080235B012C
:10047000184302607047C04604C00140024B186830
:100480008007C00F7047C04600C0064070B5EFF34C
:10049000108C72B60D4D2B68002BFCD0BFF35F8F14
:1004A0000724CB08C618C05C01230C40A3401C00E5
:1004B0000440034207D103433370BFF35F8F2C60C6
:1004C0008CF3108870BD100001F0A4FC2C0100D04A
:1004D000F8B54746CE46884680B5EFF3108C72B625
:1004E000214D2C68002CFCD0BFF35F8F9A422CD892
:1004F000D4080727055D061901241740BC402C428B
:100500001FD007210127894609E0D408055D061997
:100510004C4639001440A1400C00294211D0013250
:100520009342F2D201204042BFF35F8F00220E4B74
:100530001A608CF3108800280FDBC0BCB946B046A7
:10054000F8BD2C4310003470EEE7BFF35F8F00233B
:100550002B608CF31088012040424346002BECD0E6
:10056000089801F057FCC0462C0100D00021044B34
:10057000044ABFF35F8F02C39342FAD17047C0466B
:10058000000100D0800100D0044A1078431CDBB287
:10059000172B00D9102313707047C046180E002087
:1005A00000B5054B83B00100009318221F230348B8
:1005B000FFF78EFF03B000BD507B001088DC0020E9
:1005C00001238340002904D0034A1360034A1360C7
:1005D0007047034A1360FBE780E200E000E100E0BF
:1005E00080E100E001238340014A13607047C04668
:1005F00000E200E0084B10309B688000C358002BDD
:1006000007D0064A00209B1A2F229A424041C0B2CE
:1006100070470020FCE7C04600ED00E01C0E002003
:10062000024B10309B688000C058704700ED00E01E
:1006300070B50D00EFF3108672B60F4A1368002BE9
:10064000FCD0BFF35F8F0D4B10309B6884001B59AB
:100650000B4A934203D09D4201D001F0F3FB074BBC
:100660009B681D51BFF35F8FBFF35F8F0022024B6A
:100670001A6086F3108870BD240100D000ED00E000
:10068000CD010010F0B557464E46DE464546E0B572
:1006900085B0060002911700EFF3108B72B6674A1F
:1006A0001368002BFCD0BFF35F8F0025644B5D57B0
:1006B0009A46002D00DAA4E06B00624C03935B19AC
:1006C0009B009846A146C1444B4652469B79103642
:1006D00013705D4BB2009B68019299580B1B2F2B36
:1006E00034D95A4B994200D0A4E0039B584A9C4607
:1006F000584B6544AD006353434602336519E41813
:10070000554B0121043B1B1B1B055B0D13436B80E9
:10071000524BEF71AB80FF23AB71029BAB604B463A
:100720000B431900484B019A9B689950BFF35F8FA8
:10073000BFF35F8F0022414B1A608BF3108805B026
:10074000F0BCBB46B246A946A046F0BD01200A0057
:100750008243D379BB422FD845464E4613004049C9
:100760001B1B5B415943090D3A4B63533A4B02350E
:100770006519043B5B1B1B05354D5B0D2B437380DB
:100780000426B446E0444444131F1B1B4C46A1718D
:1007900002991B05A16049465B0D2B43A380314B99
:1007A000E77101431360BDE75800C01880002018AE
:1007B000C679BE422BD902000623D356002BF3DAAA
:1007C000101D82462848804604267642B446E144FD
:1007D00050464E46361A3005400D824656461C4855
:1007E000957106439680039A944665441D4AAD0070
:1007F000641922604246A371029BA280E771A36044
:1008000090E701F01FFB002553465D5754E7101D8C
:10081000824690884005001584464046D44466468A
:1008200004302018301AE0260005400D360230430F
:100830008046C9E701F006FB57E7C046240100D017
:1008400089E100201C0E002000ED00E0CD01001029
:1008500000E0FFFF00A1FFFF4C0E002001BDFFFFE5
:10086000AAAA00000148804701BD0000F0B5DE469D
:1008700057464E464546E0B50C0083B0EFF310896D
:1008800072B6584A1368002BFCD0BFF35F8F564BEB
:100890009A68030010339F00D559544A90469542F8
:1008A00032D0A54243D0524EAA1B2F2A2CD8012267
:1008B0008240924651464F4A12681140019151467A
:1008C0004D4A1160BFF35F8FEFF305829346002A14
:1008D00033D101232A009A4393689C4208D177E0E0
:1008E0004B005B189B00F3189968A1422AD01A00AC
:1008F000062151560029F3DA019B002B19D05246EC
:100900003E4B1A603B4B1A60374B9B68DD51BFF37F
:100910005F8FBFF35F8F0022324B1A6089F310881C
:1009200003B0F0BCBB46B246A946A046F0BD1500D8
:10093000EAE75246304B1A60E6E79342C9D001F02D
:1009400081FAC6E706215956002921DB4A005018D2
:10095000800034188046A0689860E079D87106203D
:1009600020569871002824DBA488F01A6405241509
:1009700044440019E0240005400D240220439880DF
:1009800052181F4B9200B6181A781970B271B3E75B
:10099000594600290FD1FF3191711A4991801849A8
:1009A0000A789A71184A9B1B5B415A43120D0A70D0
:1009B000A2E71648E3E7164A1649D21A083A500247
:1009C000400D01439980144952080A43DA8093E7A5
:1009D0000621515613000029B8DA5A46002AEAD1F6
:1009E0004546DCE7240100D000ED00E0CD01001019
:1009F0001C0E002000E100E080E100E080E200E069
:100A000089E1002001BDFFFFAAAA000001BD00008E
:100A1000560E002000F0FFFF00F8FFFF70B5EFF367
:100A2000058101240443EFF3108C72B6214A136848
:100A3000002BFCD0BFF35F8F1F4B05001F4AED1A40
:100A40006D416A43120D1E4D8900AE6852B2765850
:100A5000A6421CD00621595691421CD0122159564B
:100A6000914222D01E215956914220D02A21595616
:100A70000324914210D0134B19781A708171BFF37F
:100A80005F8F00220B4B1A608CF3108870BDAB682F
:100A90000D4C5C50EFE700246100091989005B18D8
:100AA000FF21997109499980E5E70124F4E70224BF
:100AB000F2E7C046240100D01C0E0020AAAA0000C4
:100AC00000ED00E089E10020CD01001001BDFFFF35
:100AD000054B064A1360064A136053609360D36067
:100AE00013615361936170478080808000E400E06F
:100AF00004E400E000B5074B83B00100009300223E
:100B000005230548FFF7E4FC002801DB1F23181A22
:100B100003B000BD6C7B00108EE10020024B9C46B0
:100B200061448900016070474000003410B5040042
:100B3000FFF72AFD01002000FFF7F0FFFF232371DC
:100B4000BFF35F8F10BDC04610B50400FFF71CFD5A
:100B500001002000FFF7E2FFFF23A380BFF35F8FB8
:100B600010BDC04610B504000120FFF719FD044B6D
:100B70009C46604480002060BFF35F8F10BDC0467C
:100B800040000034034B9C46614489000160BFF380
:100B90005F8F70474000003483680B4810B584466F
:100BA00061446244090112019A18591854684B684B
:100BB00001209C4201D802D00020C0B210BD1268B2
:100BC0000B689A42F9D8F7E7FFFFFF0F0A4B196845
:100BD000EFF3108072B60A68002AFCD0BFF35F8F73
:100BE0001B68BFF35F8F00221A6080F3108840BF3C
:100BF000002000217047C04658E10020F8B5574654
:100C00004E464546DE46E0B599460CAB1C780DAB2A
:100C10001B78060090469A460768002C11D1BC7BD1
:100C2000002C42D065003B682D19033D59194B78C3
:100C3000BB73002B00D1FB7300238B704B700B70C8
:100C400004E065003B682D19033D5919B2682A4B31
:100C500094464246E3181B0163441A604A465A60B0
:100C60000A9A9A600B9ADA6000238B704B700B70B3
:100C70007B7B9B46002B2BD022005946B8687B68B3
:100C800098473A68002816D05B4658465B005B449C
:100C90005519033BA870D118D35C002B00D06B70A2
:100CA0005B460C707B73A34513D0F0BCBB46B246C9
:100CB000A946A046F8BD5B465B005B44033BD318E6
:100CC0009C705119525D002A00D05A705B460B701F
:100CD0007C7342464B46307D00F096FB051E06D0E5
:100CE0005346002B03D12100306800F0B1FD0E9B6C
:100CF000002BDAD01D70D8E7FFFFFF0FF0B5DE46FE
:100D000057464E4645460023E0B58BB00893674BE7
:100D10008200D45800239B46099000F015FB6268BE
:100D200006000F00EFF3108572B61368002BFCD09D
:100D3000BFF35F8F23689C465B7B9946002B00D1F5
:100D400069E0A2685A4B90464B441B0198444346C5
:100D50001A685B6810001900801BB941002900DC8B
:100D600063E0099800F050FB00230022984600231E
:100D70000692079300239A466368BFF35F8F5A4633
:100D80001A6085F310885346002B08D10028C4D17F
:100D90000BB0F0BCBB46B246A946A046F0BD089BCE
:100DA000414618024B461843D047626806000F00C0
:100DB000EFF3108572B61368002BFCD0BFF35F8F82
:100DC000002F50DB33003B4302D02369002B61D15D
:100DD0002368D97B002907D04A00521819688C462D
:100DE00049466244033A51709A7B002A01D14A462F
:100DF0009A734A46DA734B46E168013BCA5C01329A
:100E0000CA545B4623616368BFF35F8F5A461A601A
:100E100085F3108881E7002300229846002306927C
:100E20000793002300209A46A6E7002902D1002854
:100E300000D096E70021604600F088FC43461A681F
:100E40005B680692079343469B689A464346DB6875
:100E50009846E3684B44013B1B7808931B0203430D
:100E60002361002088E72369002BB1D0069A079BF5
:100E7000921BBB41002B15DB5946049101210391C4
:100E80004946029141460191514620000091FFF7E9
:100E9000B5FEB6E700F058FA32003B0012184B419D
:100EA000002BE9DA0122034B5242E5E73CE1002046
:100EB000FFFFFF0FFFFFFF7F10B5144C6368002B8F
:100EC00004D00A211248FFF729FE10BD2300114A61
:100ED0001021206800F054FB032000F029FA0320C1
:100EE00000F0FCFA03200C4900F048FAFFF74CFB35
:100EF0000A4B9C4603232375D0231B061B686044C2
:100F00006375074B80006060DC60DAE7640E0020E8
:100F100058E10020990B0010FD0C00104000003437
:100F20003CE1002000487047640E0020F0B54E46BA
:100F30004546DE465746E0B585B0019310AB1B78B9
:100F40000600039300239946984600927268EFF3D7
:100F5000108B72B61368002BFCD0BFF35F8F35681F
:100F6000AC7B002C3DD067002B683F19033FDB1999
:100F70005A78AA73002A00D1EA73B168474A8C46AE
:100F800000980199A21812016244106051600E99F4
:100F900091600F99D16042469A705A701A706B7BBB
:100FA0009A46002B67D022001900A8686B68984702
:100FB0002A68002852D0534650465B005344D71944
:100FC000033BB870D118D35C002B00D07B70534624
:100FD0000C706B7354454FD0F3681B19013B1878A4
:100FE00000E000207368BFF35F8F42461A608BF306
:100FF0001088002C4FD04B46002B08D10002204314
:1010000005B0F0BCBB46B246A946A046F0BD039B66
:10101000002B3ED00E9B00200F9998470300040040
:101020000D000B4335D000290ADA009A019B121BF0
:10103000AB4100920193002B0ADB039B994685E7A5
:1010400000F082F924184D4100940195002DF4DA46
:101050000123134C5B4200930194EEE753465B007F
:101060005344033BD3189C70D119D25D002A00D0A1
:101070005A7053460B706C73307D009A019B00F0E0
:10108000C3F981460028A7D02100306800F0E0FBBA
:10109000A2E70020B4E701204042B1E7FFFFFF0FC5
:1010A000FFFFFF7F407D7047F0B504000D0006266E
:1010B0007642F717C64636196F4100B584B08F42A5
:1010C00014D811D000F040F932003B00121A8B41C5
:1010D000002B15DC002B3ED02000290000F03EF94B
:1010E00004B080BCB846F0BD8642EBD9002600278C
:1010F00000F02AF932003B00121A8B41002BE9DD87
:10110000002302930193154B3200009314483B00D7
:10111000FFF70CFF0028DFDB00239846BC46114A8E
:10112000114F7B6A9C4504D8B96A8E42D4D99C453C
:10113000D2D11168EFF3108072B60B68002BFCD08F
:10114000BFF35F8F1368BFF35F8F4146196080F371
:10115000108820BFE5E7002ABED0D1E7CD0B0010F4
:10116000640E002058E100200040054070B50600E4
:1011700000F0EAF8FA2204000D00002330000021FC
:10118000920000F045FF00196941002902DBFFF7DA
:101190008BFF70BD012001494042F8E7FFFFFF7F50
:1011A000F0B5EFF30583CE46474680B505000C0049
:1011B00085B0002B12D02C4A0020536A9C4203D8E1
:1011C000926A0130AA4204D305B0C0BCB946B04609
:1011D000F0BDE01A421E9041C0B2F5E7234E0293E3
:1011E0000193234B0200009330000B00FFF79EFE9B
:1011F000031EE0DD20BF7168EFF3108772B60A6846
:10120000002AFCD0BFF35F8FDAB294463068427B8D
:1012100062451DD0FF221A40510089460168914461
:1012200088464946414403398978002913D0F1683A
:101230001B0A88464244013A1278DBB29A420FD028
:101240007368BFF35F8F00221A6087F31088B2E7DC
:10125000FF221A40EBE732699342F1D13161EFE7A7
:10126000614600F0F5FAEBE700400540640E00200F
:10127000CD0B0010F0B5EFF30582D6464F4646463B
:101280001000C0B51038EFF3108872B6214C2368F7
:10129000002BFCD0BFF35F8F0123190081401E4D4E
:1012A0001F006963AA461D4D29601D4D2E78AC466E
:1012B0003500C5402F402B4209D1BFF35F8F276017
:1012C00088F31088E0BCBA46B146A846F0BD534644
:1012D000144D5F6A83005D59AF420ED3124A8E43AC
:1012E0009B5862461670BFF35F8F0022226088F31E
:1012F0001088002BE6D09847E4E70C4B92009C4600
:10130000624413681360BFF35F8F0023236088F388
:101310001088D7E7280100D0004005403C70054008
:101320008DE1002064E1002070DB0020D03F05400B
:1013300010B50100024A0348FFF7A8F810BDC046E7
:10134000887B001088E10020034B596A0A00986AE4
:10135000596A8A42FAD1704700400540064A536AEA
:101360009942FCD807D1044B02E05A6A914202D15B
:101370009A6A8242F9D370470040054070B5040074
:101380000D00EFF3108672B61A4A1368002BFCD0DA
:10139000BFF35F8F002D1BD02000FFF741F91649E6
:1013A00081420AD02000FFF743F901212000FFF716
:1013B00007F90123A340114A1360114BA400E55023
:1013C000BFF35F8F00220B4B1A6086F3108870BD4D
:1013D0000B4BA200D5500122A2400A4920000B78F5
:1013E00093430B700449FFF741FA00212000FFF7F7
:1013F000E7F8E5E7280100D07512001038600540D5
:1014000070DB00208DE10020F0B54F46D646464601
:10141000C0B507002C4C616A0D00A66A616AA9423A
:10142000FAD18B4208D805D00120E0BCBA46B146BB
:10143000A846F0BDB242F7D9EFF3108A72B623483E
:1014400001680029FCD0BFF35F8F0125BD40204912
:101450001D4C8846097889462943C9B28C464146C5
:1014600060460870391D1B48890065630A51B90040
:101470000B50216A0020294219D0616A0800A66A2F
:10148000616A8142FAD18B4219D801D1B24216D891
:10149000CC4516D00C4B1F201D625D630123074015
:1014A000BB400D4A1E38136043464A461A70BFF3CC
:1014B0005F8F0022054B1A608AF31088B5E7002081
:1014C000F5E70120F3E7C04600400540280100D0C1
:1014D0008DE1002064E1002080E200E0EFF3108C59
:1014E00072B60A490B68002BFCD0BFF35F8F012353
:1014F0008340074A0748136202789A430270BFF399
:101500005F8F00230B608CF310887047280100D098
:10151000004005408DE1002070B505001400160064
:10152000002915D00C00002A12D080686B689847FB
:10153000296800280ED073009B196200033B121922
:10154000CB18033A9C7088188A5C002A15D1067063
:10155000200070BD63001B197200033B9219CB1869
:10156000033A9E7088188A5C002A02D10470340005
:10157000EEE75A7004703400EAE75A700670E7E745
:1015800030B583600023CCB24373013304734260EF
:101590008373C4730D000068012C06D9421C01330B
:1015A000DBB2137003329C42F9D1FF2129404B007A
:1015B0005918002340180338437030BDF8B5CE46A3
:1015C000474606000C0080B5002907D04D0003688F
:1015D0006D18033D5A195778002F04D12000C0BC64
:1015E000B946B046F8BD7900C91903398846434465
:1015F0005978894600215970517073683A0021006A
:10160000806898473368002814D042469A1894702E
:1016100059195B5D002B00D053700F7027004946AD
:101620003000FFF7CBFF390002003000FFF774FFF6
:101630000400D3E7424641465D19AF709A185B5CDF
:10164000002B00D06B701470E9E7C046F0B5574628
:101650004546DE464E46E0B50D006B0001685B195D
:10166000DF1E0400C85D83B00192CA19002850D063
:1016700043001B18033BCB185E78B446002E1AD1EA
:10168000019E002E42D0E67B002E04D073009B19F1
:10169000CB18033B5D70A37B002B00D1A573E573D2
:1016A00000282FD10023537003B0F0BCBB46B246D4
:1016B000A946A046F0BD72006244033A89184A78F0
:1016C000904600224A7091465A7001003200200074
:1016D000FFF722FF43468246002B07D05B002168BC
:1016E0004344033BCB185A78002A16D14246514650
:1016F0002000FFF711FF2168019BCA19002BC2D1FE
:101700000028CFD043001B18033BCB180021997051
:10171000C8E7019B002BB6D1C4E7500080180338FE
:10172000091848788346484648705870414620005A
:10173000FFF7F2FE594680462000FFF73FFF414683
:1017400002002000FFF7E8FE8046CFE7F0B55746DD
:101750004546DE464E46E0B583B00191457B040028
:101760006B0000685B19DF1EC15DC219002952D0F1
:101770004B005B18033BC3185E78B446002E1CD1A7
:10178000019E002E44D0E67B002E04D073009B19EE
:10179000C318033B5D70A37B002B00D1A573E573D9
:1017A000002931D1002328005370617303B0F0BCCD
:1017B000BB46B246A946A046F0BD72006244033A59
:1017C0008018427890460022427091465A7020005C
:1017D0003200FFF7A1FE43468246002B07D05B0094
:1017E00021684344033BCB185A78002A17D142465C
:1017F00051462000FFF790FE019B01002068C219AE
:10180000002BC0D10029CDD04B005B18033BC3187F
:1018100000209870C6E7019B002BB4D1C2E75000AE
:10182000801803380918487883464846487058702D
:1018300041462000FFF770FE594680462000FFF722
:10184000BDFE414602002000FFF766FE8046CEE75F
:1018500070B5040000292CD0437B8B422ED0056844
:1018600048004018033828188278002A21D05300F5
:101870009B18033BEA5CEE188A4202D11BE0002A67
:1018800008D053009B18033BEB185A788A42F6D1D4
:1018900042785A7000230122837043702000FFF7C2
:1018A000D5FE617B02002000FFF736FE6073012049
:1018B00000E0002070BD43783370EBE7012219008F
:1018C000FFF7C4FE60730120F4E7C04630B50C207A
:1018D00083B000F0B9F9FEF7D1FD00280ED0994B86
:1018E000994A1A605A609A60DA601A615A619A617C
:1018F000DA611A62954A5A6203B030BD944CA0670F
:1019000000F0F6F90122934B1A60636C012BFCD1B5
:101910000322914B1A608E4A936B012BFCD1013349
:1019200001218E4A8E480093043300F03DF90523CF
:101930008C4A009301218C4800F036F98B4B5A6891
:10194000FF2A02D8802252005A6080227D4C824BAE
:1019500021691201854D1A60002907D0606900F0E5
:10196000D1FA431C5800C0180338FDD2E0217F4B48
:1019700002201A681140802252012A43116019681E
:10198000484003210140116004219A681142FCD0B3
:101990008022802192012A43090111608022520095
:1019A0005A60734B2361734B5968FF2900D85A6002
:1019B0000321684A6F4B116002399A681142FCD0CA
:1019C000E0201A681040802252011A431060186803
:1019D0004840032101400220116066498A68104294
:1019E000FCD0802292011343802212011A608022CF
:1019F000614B52004A606361604B5968FF2900D80F
:101A00005A6080225E4BE16912015C4D1A60002928
:101A100007D0606900F076FA431C5800C0180338FC
:101A2000FDD2E02255490B681A4080235B012B430D
:101A30001A60802380229B012B4312011A608022AE
:101A4000414B52004A60E3614E4B5968FF2900D870
:101A50005A6080224C4B216A12014A4D1A600029BB
:101A600007D0606900F04EFA431C5800C0180338D4
:101A7000FDD2E02243490B681A4080235B012B43CF
:101A80001A60802380229B012B4312011A6080235D
:101A900080225B004B602C4BD20223623B4B596887
:101AA000914200D25A608022394B616A1201374D4F
:101AB0001A60002907D0606900F024FA431C58001E
:101AC000C0180338FDD2E02230490B681A40802349
:101AD0005B012B431A60802380229B012B43120160
:101AE0001A608023DB024B60184B6362294B5A68F3
:101AF000FF2A02D8802252005A608022264BA16918
:101B00001201244D1A60002907D0606900F0FAF92B
:101B1000431C5800C0180338FDD2E0221D490B6851
:101B20001A4080235B012B431A60802380229B0193
:101B30002B4312011A6080235B004B600E4BA361A4
:101B4000DAE6C0468CDC0020006CDC021BB700002B
:101B5000008000403CB0004030B00040002F685989
:101B600000800240008C864700C002403080004068
:101B7000001BB7003C800040405973075480004070
:101B800054B000406080004060B000406C80004075
:101B90006CB000404880004048B00040014B8000DD
:101BA000C05870478CDC0020F8B5040021481D00A7
:101BB00017000E0000F0A6F90100380000F0A2F9AD
:101BC000069B29041B0319432368002B20DB1A4BB7
:101BD0001A4DE21853425A4180235B019C4612037E
:101BE000174B62441A60174B1A601700AB689F438B
:101BF000FBD1C022231D92011A4321232660A0603D
:101C000013602368002BFCDA0823E1601360F8BD41
:101C10003F2322681340B342D9D1A3681B051B0D93
:101C20008342D4D1EE22E368D20213408B42CED15C
:101C3000EDE7C046001BB7000040FDBF00C00040FC
:101C400000E0004000F000408023024A9B00034374
:101C5000D36270470080054010B5140080221B4BF2
:101C6000D2051A6000281AD00123194A1843194BCB
:101C7000DA61194A42401A62596298628022134B13
:101C8000D2051A601549164A1160E022D2041A6082
:101C9000002C07D18022134B12061A6010BD0D4B89
:101CA000D861EBE763011B1B9A0080231219120114
:101CB0005B049A4200D30C4A0C4B1A60054B5A60E5
:101CC0008022084BD2051A60E8E7C04600B0054004
:101CD000D3C007B0008005402D3FF84FFCFF010046
:101CE0000820014000A00540FFFFFF002CE100207C
:101CF000AA23064A1B0113602F230549D360054B15
:101D000019605368002BFCDA7047C046004002405F
:101D100000B0FA00006002402C4B2D4A70B51A60EA
:101D20002C4A2D4B2D491A6014008B689C43FBD123
:101D30002B4D2C4EB54208D2013E761BB60808CD7D
:101D4000984723000134B342F9D1FFF7BFFD264A7B
:101D5000214B1A60214A9368DB43DB01DD09002B2C
:101D6000F9D14022214B224C224E9A675A671A67BA
:101D7000DA66B44208D223682000002B20D0083451
:101D8000FEF7E2FEB442F6D31B4E1C4CC022A16803
:101D9000300000F0ADF9A660FEF7E8FBFEF798FE14
:101DA000FFF78AF8164C174EB44208D2013E361B94
:101DB000B60808CC98472B0001359E42F9D170BD7A
:101DC0000834FEF7B3FEB442D5D3DDE700E00040AF
:101DD000BFCDFBFEFE7F3C0000F0004000C0004095
:101DE000080F0020180F0020FFFFFF0100F0014046
:101DF000000F0020080F00200000002000ED00E090
:101E0000180F0020200F002000BEFDE710B5FFF7DF
:101E1000FBFFC0460FB400B5084883B000F09AFA43
:101E2000049B002B07D005A91800019100F018F8B9
:101E3000034800F08FFA0120FFF7E6FFAC7B0010AB
:101E4000BC7B001010B50148FFF7E4FFC07B001019
:101E500010B5002800D110BD00F030FAFBE7C046F5
:101E600010B5094A0300146884B0002C08D0012280
:101E700000910648524203A9A047012004B010BDBA
:101E800000F068FA0020F9E728E10020511E001058
:101E900001480421014B1847900E0020C11E00107C
:101EA000142310B50100188804331B88984710BD0F
:101EB000162310B50100188802331B88984710BDFF
:101EC000F8B54746CE4680B50F1E19D01423994663
:101ED000043304000025012698464B4618884346E3
:101EE00021681B88984701C4431E98410135404230
:101EF0000640AF42F1D13000C0BCB946B046F8BD93
:101F00000126F8E7114A936F9B0813D210665166B9
:101F1000002905D0FFE7FFE7FFE7516F106F70471B
:101F200004B5002801D00020C04305F089FD002140
:101F300004BDC046F0B5146E556E576F166FFFF7AF
:101F4000E5FF1466556657671667F0BD000000D0C0
:101F5000132370B51D78012D15D010DD1C48FFF737
:101F6000A7FF1C4C01008022200000F0C1F8022DC8
:101F700006D01948FFF794FF184B186070BD154C38
:101F8000174BA364F5E7164B124C23606360A36004
:101F9000E36023616361A361E36123626362A3621F
:101FA000E36223636363A363E36323646364A364FF
:101FB000E36423656365A365E36523666366A366DF
:101FC000E36623676367A367E367A364D1E7C0465B
:101FD00053440000781000204C33000054E10020EE
:101FE000E51F001007B5604601880A0A0230DF2AA3
:101FF000FAD1C9B2820804D3028840880004104391
:1020000000E00068014A5050039007BD781000209E
:1020100051434343C9188C46110C83B24B4310B44F
:10202000040C614392B280B2504362431C041B0C07
:10203000001910BC59411304120CC01851416144DD
:1020400070470000132310B512481C78FFF730FFCB
:102050000100012C0AD003DD80220F4800F048F86F
:102060000E48FFF71DFF0E4B186010BD0A4C54229E
:10207000200000F03DF80B4B6365A365E365236624
:102080006366A366E36623676367A367E367236208
:10209000E361E5E753460000781100204C3300006F
:1020A00054E10020A920001007B5604601880A0A03
:1020B0000230DF2AFAD1C9B2820804D302884088EC
:1020C0000004104300E00068014A5050039007BD2F
:1020D0007811002001480421014B1847A00E002070
:1020E000C11E0010014B1B6818470000A00E002005
:1020F000014B5B6818470000A00E0020030010B5DC
:10210000080011001B68984710BDC046F0B5464650
:102110004F46D646C0B5437D80460E001700002BC3
:1021200046D0002A3FDD4B1E9946244B0125002452
:1021300000209A460DE04B461B5D0D3B5A42534131
:10214000325DDBB20A2A0BD02B00013401359F42ED
:102150001ADD002CEFD14346325D1B7D0A2AF3D1F4
:10216000002BF1D1A04204DA4346211A1B68301833
:102170009847434650461B6802219847013428007F
:102180002B0001359F42E4DC874204DD4346391AC7
:102190001B6830189847F619013E33780D3B5A42B8
:1021A000534142461375E0BCBA46B146A846F0BD5D
:1021B0000368110030009847F5E7C0462C7C0010FA
:1021C000F0B5DE4657464E464546E0B585B01700A9
:1021D0001C0006000D00FFF7B7F80023304A121864
:1021E0004B41002B58DB2F4908008A4605F050FC74
:1021F00001906B1C03D1300005F0D8FB0500002CCA
:1022000025D1294B9846294B1C68002C15D0002F4E
:1022100020D1274F02E02469002C0ED02368002B28
:10222000F9D03B68002B01D0A342F4D120002A0052
:102230003100C0472469002CF0D1019B002B27D12D
:1022400005B0F0BCBB46B246A946A046F0BD194B4E
:102250009846D8E7164B994602ABDF1D0A239B46EA
:1022600002E02469002CE8D02368002BF9D04B460B
:102270001B68002B01D0A342F3D12A0031002000BB
:10228000C0475B460122390020003B70C047E8E7A9
:10229000504605F0CDFBD3E70122074B5242A2E79F
:1022A00040420F00000F00200D2100101CDD002017
:1022B00024DD0020FD200010FFFFFF7FF0B5CE469B
:1022C000474680B583B06B460600DD1D2870FFF7DA
:1022D0003BF800231A4A12184B41002B2BDB1949FB
:1022E0000800884605F0D4FB174B81461C68002C7B
:1022F00014D0164F02E02469002C0FD02368002B65
:10230000F9D03B68002B01D0A342F4D12000012278
:102310002900FFF7FBFE2469002CEFD14B46002B70
:1023200005D1300003B0C0BCB946B046F0BD404650
:1023300005F07EFBF5E70122054B5242CFE7C04690
:1023400040420F00000F00201CDD002024DD002093
:10235000FFFFFF7F70B5040005F028FB002301009C
:10236000050001222000FFF72BFF084B1C68002C02
:1023700006D06368002B05D098472469002CF8D15B
:10238000280070BD2469002CF3D1F9E71CDD002082
:102390000A4A1368002B05D10CE01A001B691032A1
:1023A000002B07D09842F8D1002902D103691360AD
:1023B000016170470029FCD01060FAE71CDD0020A5
:1023C00010B500F0D9F910BD7047C0460022014B8E
:1023D0001A7070478AE100204B790020FF2B0BD147
:1023E0008B79002B08D1CB79012B05D1082A03D991
:1023F0008A78024B09301A707047C0468AE1002083
:102400000120704770B5012909D115495379107918
:1024100009781B0203430020994202D070BD0120BD
:10242000FCE75378012B08D0022BF7D1002064225F
:102430000021FFF711FC0120F0E79478D278050025
:1024400012021443D20502D5620A93401D000548CA
:10245000FFF726FD7F210300214028009847C04652
:102460008AE10020554200000123037000487047B4
:10247000307C001048780B788A78000218431204E8
:1024800010439622CB7810B51B060343D20093422B
:1024900000D010BD0348FFF703FD00210300080032
:1024A0009847C04655420000024B1860024B196025
:1024B0007047C04680DC002084DC002010B5024B51
:1024C0001878FEF78FF810BD8BE10020114B70B526
:1024D0001A68002A1AD0EFF3108172B6106800282B
:1024E000FCD0BFF35F8F00220B48596002701B685D
:1024F000BFF35F8F1A6081F3108800240025074B1B
:102500001878FEF76FF82900200070BDFA24002526
:10251000A400F4E734E100208CE100208BE10020EE
:1025200070B5040000200E0001F002FB002835D039
:10253000002001F015FB002830D0FEF705FF002336
:10254000184A12184B41002B24DB174D280005F0C8
:102550009FFA002822D0002001F0EAFA00280BD1CF
:10256000012000210324404200F0CCFC64422800FA
:1025700005F05EFA200070BD002001F0F1FA00289D
:10258000EED021003200002001F0F6FA041EEED158
:10259000033CECE70122054B5242D6E70324644298
:1025A000E8E7C04640420F005CE10020FFFFFF7FEC
:1025B000F8B5DE46574680B505000C00FEF7C4FEB0
:1025C0000023364A12184B41002B5ADB34490800CD
:1025D0008A4605F05DFA002803D1C0BCBB46B2466E
:1025E000F8BD002001F0A4FA00284ED00026002CEF
:1025F00043DD2C4B9B4614E0A919002001F030FB71
:10260000070001200021404200F07CFC002001F086
:10261000EBFAFEF799FE234BF61918605960B442A5
:102620002BDD002001F036FBA71B0200B84200DDC5
:102630003A00002AE0D101200021404200F062FC73
:10264000002001F0D1FA002001F072FA002814D025
:10265000002001F01FFB0028E1D1FEF775FE5B466C
:102660000F001A685B68002184460F4812184B411E
:102670009F4202D8D3D19445D1D9504605F0D8F91C
:10268000ABE70122094B5242A0E700200021054B95
:1026900018605960504605F0CBF99EE740420F00A4
:1026A0005CE100207010002020A10700FFFFFF7FE9
:1026B00010B5244C84B00021200005F0C9F9002891
:1026C0001CD1214B1A68002A16D0EFF3108172B684
:1026D00010680028FCD0BFF35F8F01241B485960AD
:1026E00002781B68D2B20470BFF35F8F00201860BD
:1026F00081F31088002A0AD004B010BD0120002107
:10270000404200F0FFFB200005F092F9F4E7FEF7ED
:1027100009FC0400FEF718FEFA22002392001218AA
:102720004B41002B09DB0121029100210191084955
:1027300020000091FEF7FAFBDEE70122054B524232
:10274000F1E7C0465CE1002034E100208CE100208C
:10275000CD240010FFFFFF7F054B10B5186800283F
:1027600004D0044B0022196801F044F810BDC046A3
:1027700080DC002084DC0020D02310B51B0684B050
:102780001C68FEF7CFFBFEF78DFCA04202D00020B4
:1027900004B010BD264B1B7801F066FC2548FEF7FF
:1027A000C5F90120FEF7A6F9FF23234C2349207029
:1027B0001840FDF73DFF20780121FDF701FF0520BE
:1027C000FDF718FF002822D1FEF7ACFB0400FEF74E
:1027D000BBFDFA220023920012184B41002B22DB92
:1027E0000121029100210191154920000091FEF77D
:1027F0009DFB0822040000211248FFF773FC002C07
:10280000C5DB11480121FFF7C3FD0120C0E700220D
:102810000E490520FDF736FFFDF7B6FE0100094819
:10282000FEF7B0F9EDE70122094B5242D8E7C04666
:10283000747E00105CE100208BE10020B1260010C6
:10284000CD24001034E10020B00E0020BD24001083
:10285000FFFFFF7F00487047E87C0010004870478A
:10286000947C001070B5040017480378002B21D029
:10287000002C06D1C1241548154BA40043800480C8
:1028800070BD052C1DD8134B1048A400E558811CC1
:10289000002304E001330A800231132B0ED0EA5CDE
:1028A000DCB2002AF6D1C0230134E4B264009B00FC
:1028B0001C43E4E7112100F017F8D9E7CA24A4006B
:1028C000DDE70020DCE7C04674E10020F4DC0020F6
:1028D00009040000FC7C001010B5024800F0D8F894
:1028E00010BDC0464CE1002030B54B1E012900D17F
:1028F000A7E0664A11780D112C0030349F2900D9C9
:10290000A2E00470012B00D1BEE00F211478214019
:102910000C003034092900DD98E04470022B00D10E
:10292000B2E054782511290030319F2C00D990E075
:102930008170032B00D1A7E00F2121400C0030341F
:10294000092900DD87E0C470042B00D19CE0947855
:102950002511290030319F2C00D97FE00171052B12
:1029600000D191E00F2121400C003034092900DD15
:1029700076E04471062B00D186E0D4782511290039
:1029800030319F2C00D96EE08171072B00D17BE0A4
:102990000F2121400C003034092966DCC471082B5A
:1029A00000D171E014792511290030319F2C5FD8B6
:1029B0000172092B68D00F2121400C003034092905
:1029C00058DC44720A2B5FD054792511290030312C
:1029D0009F2C52D881720B2B56D00F2121400C0016
:1029E000303409294BDCC4720C2B4DD0947925115D
:1029F000290030319F2C00D9073101730D2B43D0B2
:102A00000F2121400C003034092901DD37310C0041
:102A100044730E2B38D0D1790C11220030329F290B
:102A200000D9073282730F2B2ED00F220A401100DB
:102A30003731092A01DC30321100C173102B23D049
:102A400010300023037030BD07345AE737310C00D3
:102A500063E707316CE737310C0074E707317DE736
:102A600037310C0085E707318EE737310C0095E7E9
:102A700007319DE737310C00A3E70731AAE737316B
:102A80000C00C4720C2BB1D1C018DAE74CE1002065
:102A900030B5002589B004000922002101A8009565
:102AA000FFF720FB0922002105A80495FFF71AFB78
:102AB0004B236A466846137004A90D2204F0B0FF48
:102AC0001521082220006944FFF712FB09B030BD30
:102AD00010B501210520FDF773FD10BD10B50022D2
:102AE0000021024800F05AF910BDC04648DD002020
:102AF0008022024B5202DA647047C0460020115017
:102B0000F0B5C64600B5060000F022F90C231B4DB7
:102B1000FF22AB6705201A49FDF7B4FD4023984614
:102B2000184C402200212000FFF7DCFA4346012721
:102B3000238321210023144A6770A2601360635429
:102B40005F31618441462187053963540F4A10493A
:102B50006360E260A1620B606362E26204F058FFAE
:102B600080239B052F64EB6490230A4A3000EA50CF
:102B7000FFF7BEFF80BCB846F0BDC0460000115054
:102B8000F904002028DD00208400105000011050BE
:102B90008000105010D001000B785B0602D14B78FA
:102BA000052B00D070478A78014B1A60FAE7C046BF
:102BB00000001150F0B5C64600B54B790C791B02E8
:102BC00088782343CC787F21A4070140C509A20F50
:102BD0004F001400324E7A195201B2189070012041
:102BE0006840507000205B055B0DD0701383D47675
:102BF0008046CA00012D33D02A48844688016244A9
:102C00008446B4446046826040461060002933D058
:102C1000254AC90090466246414451603F223F33F5
:102C20009343022C00D15B0020487A1901685201BD
:102C3000B218D1601E4ACB18036051405340802225
:102C400088465201934228D84346A4061C43802359
:102C50007F197F011B06F6191C4373681C6011E085
:102C600014488446880162448446B44460468262C3
:102C700040461060002909D100236D017619736068
:102C80000D4BF360012080BCB846F0BD084AC90076
:102C90009046624641445162C0E7FFF7D3F8D3E75C
:102CA00028DD0020840010500400105030E1002086
:102CB00000001050800010500001105010B504F0BA
:102CC000A7FE10BD10B57F200C0020404000E40995
:102CD000110000191A00034B4001C01800F05EF803
:102CE000012010BD28DD00207F22130010B50B400D
:102CF0000A420BD0C90980225800401806494001F9
:102D000040181201002104F0DBFE10BD022203482E
:102D1000C909521A8266EEE728DD00200020115012
:102D20007F22100010B508400A4200D110BD0023D8
:102D3000C90940004018044940010818002203490D
:102D4000C37004F0BDFEF1E728DD0020FFF7FFFFB0
:102D500080220D4B520410B51A600C4B0C491A60BE
:102D600010008B689843FBD10A4C9C220021200064
:102D7000FFF7B8F98022002152010748FFF7B2F9A6
:102D80000923636710BDC04600E0004000F000402A
:102D900000C00040000011500000105070B5837E4C
:102DA00004000D001600002B17D10023E38201332D
:102DB0002000A682A376256104F062FE002804D0DC
:102DC00080219023084A8902D150200004F050FE4F
:102DD000002805D00123237770BD04F069FEE4E7E5
:102DE000200004F05DFEF7E700201150024B5878F8
:102DF000431E9841C0B2704754DA0020024B187845
:102E00004007C00F7047C04654DA0020034B1878C3
:102E1000FF38431E9841C0B27047C046EC0E0020F8
:102E2000F8B5CE46474680B52C4E050033780120D4
:102E3000FF2B03D0C0BCB946B046F8BD53220021D9
:102E40002748FFF74FF9274C2000FDF76FFE264B70
:102E50001C60264C20001430FDF784FE200001F099
:102E6000D1FB234B234F1C60234B9846002B04D0EF
:102E70003800FFF7F9FA214B1860424600243B78EE
:102E8000002A23D01E4A90461C4A9146A34212D8DB
:102E90000FD14346984701343B78E4B2A342F5D2C0
:102EA00028003570FFF72CFE2800FFF711FE0120E7
:102EB000C0E70020BEE74A461268630094461B192B
:102EC000DB006344002BF4D01B68E3E700F0EEFE68
:102ED0003B780020002BADD1E2E7C046EC0E00208D
:102EE00054DA00200CDA0020A8DA0020D00E0020EE
:102EF000ACDA002085E10020692400102CD70020E6
:102F0000AD3C0010F0B5DE4657464E464546E0B5AE
:102F10008BB001F0AFF8002800D10FE1C74BC84DCE
:102F20009946C84B07AC9B462E687269EFF3108137
:102F300072B61368002BFCD0BFF35F8FB161300015
:102F4000210001F0A1F97269B369BFF35F8F00211D
:102F5000116083F31088002800D1EFE06378082B1C
:102F6000E2D84A469B00D3589F466368002BDBD0CB
:102F7000A0689847D8E77F222179B24E0A405000D6
:102F8000CB093618F618300001273030C378BB4320
:102F9000C370C3780337BB43C370002A00D1F2E08B
:102FA000A94AF37C002A06D0A84A1278934200D29C
:102FB00060E19B1ADBB2002B00D0BFE0A44E627927
:102FC0002078A368B047AFE75B4601221B78012158
:102FD00013435A46137033235846D25C5E468A43E5
:102FE000C254C25C04208243F2540133F25C8A432F
:102FF000F254F25C8243F254237800209A4600F0A7
:1030000005FD602223791A40602A0DD0402A00D1A4
:10301000BFE0DB06DB0E012B00D136E1022B00D135
:10302000D4E0002B00D1C3E020780021FFF75CFE44
:1030300080212078FFF758FE76E7824E3378DB0751
:1030400000D471E7834B002B00D16DE700E000BF97
:103050006AE77C4E3378DB0700D465E77E4B002BB4
:1030600000D161E730780007C00F00E000BF5BE7E8
:10307000764B754A9846002627781B78002A00D19F
:1030800079E0764A92469E425FD319D1744B38005C
:103090009847434601361B78F6B2B342F3D2694EE5
:1030A000532200213000FFF71DF81022FF21F01CF1
:1030B000FFF718F830002022FF211330FFF712F835
:1030C00000F09AFC674B002B00D12DE700E000BF19
:1030D0002AE75E4B5C4A9846002627781B78002A30
:1030E0001FD05E4A92469E423AD321D15C4B3800B3
:1030F0009847434601361B78F6B2B342F3D2514E9D
:10310000532200213000FEF7EDFF1022FF21F01CBA
:10311000FEF7E8FF30002022FF211330FEF7E2FF28
:1031200007E0380000F000FE43461B78002BE6D095
:10313000444E00F061FC2379B370F5E60BB0F0BCAF
:10314000BB46B246A946A046F0BD5246126873007F
:1031500094469B19DB006344002BB1D05B6896E773
:1031600052461268730094469B19DB006344002B9F
:10317000DED05B68BBE7380000F0D6FD43461B7825
:10318000002B9DD18BE762792078A36800F052FC78
:10319000CAE63548002800D146E700F037FC012197
:1031A000504608AA00E000BF002800D0BCE63BE77C
:1031B000202A00D19EE0002A00D035E76379092B50
:1031C00000D931E7294A9B00D3589F467023217AC2
:1031D0000B4200D028E758460F330B405B00CE0966
:1031E000C018194F8019C07C002F06D0174F3F78A8
:1031F000B84200D2A0E0C01BC0B2002800D096E0C8
:10320000002A00D047E11A4F02206279904682439B
:10321000012A00D142E14246002A00D004E75B4483
:103220009E193036F37806AA9B07DB0F0232138013
:103230005046022308A900F081FB75E67C7D001052
:10324000ACDA002054DA00206924001085E1002067
:10325000213F001000000000000000002CD70020DB
:10326000293D00100000000000000000A07D0010BB
:10327000087E00105A00D318B14ADB001268D31838
:10328000002B00D15AE71E6999E6237A0F2B00D94B
:10329000CAE6AC4A5B44DB78002A05D0AA4A127819
:1032A00093425ED39B1ADBB2002B00D0BCE6A7484A
:1032B000A74E00F0ABFB01215046F36808AA9847DF
:1032C000002800D030E66022160023791E401A4202
:1032D00000D0A9E663790A3B012B00D9A4E600F0EF
:1032E00095FB63790A2B00D120E1504608A900F034
:1032F0000DFB19E6237A0F2B00D995E6914A5B4422
:10330000DB78002A06D0904A1278934200D2E6E099
:103310009B1ADBB2002B00D086E68C488C4E00F066
:1033200075FB01215046F36808AA98473CE700273F
:10333000002A00D168E777E647003818804FC000C0
:103340003F683F18002A00D15EE7002F00D16BE6EE
:10335000F86800F05BFB01215046FB6808AA98471B
:1033600022E7774A5E00F3181668DB00F618002E95
:1033700000D159E6F0689CE7A279019273789A42ED
:1033800007D07378002B00D046E1019B002B00D0C2
:10339000EAE05B46019A504608A95A7000F0B6FA76
:1033A000C2E5737806AA023213705046012308A9B9
:1033B00000F0C4FAB8E5E088030AC0B20F2B00D9C8
:1033C00032E664499A008A58974608A800F024FB20
:1033D0005046A179FFF782FB022233781343337002
:1033E000A2E5E388012B00D01EE608223378934340
:1033F0005A46137079E70220317806AB9A1C8B0687
:103400008908DB0F01400B4311E7E388012B00D053
:103410000AE6082233781343EAE74F4B002B00D12A
:1034200002E600E000BF021E00D1FDE5D3789178EE
:103430001B020B43504608A900F080FAB4E6474B44
:10344000002B00D1F0E500E000BF021E00D1EBE54B
:103450005046137808A900F071FAA5E62189FFF714
:1034600001FA021EF4D1DFE5022B00D112E13C4B40
:10347000002B00D1D8E500E000BF0200002A00D1F7
:10348000D2E5D3E7FFF7E6F91223020008A9504678
:1034900000F054FA88E62D482D4F5AE7E288002ABA
:1034A00008D142465B449E193036F378012A21D078
:1034B0009B072ED5002F00D136E5F86800F0A6FA5C
:1034C000FB6808AA012150469847002000F09EFAA8
:1034D00034235A46D35CDB0700D525E505E7184AB7
:1034E0005E00F3181668DB00F618002E00D19BE58D
:1034F000F06814E79B07DDD51A4B1878FFF710FC2E
:103500000222F37893434246F370F3789343F370C7
:10351000D0E7144B1878FFF7E7FB0222F378134348
:103520000122F370F3781343F370C3E706AB9A1CE0
:103530005046012308A9167000F000FAF4E4C046D2
:103540002CD700206924001085E100203D3E0010AA
:10355000087E0010C87D0010000000000000000080
:1035600000000000EC0E0020581EC0B2FFF776F9F4
:10357000002800D158E543780593022B00D053E58D
:103580000121C2790700931152110B400A40120128
:103590005B0113435A4612782F318A4313435A462C
:1035A0001370C37882781B021343C318093703933F
:1035B000039BBB4200D8ACE001227B7800920B2B2E
:1035C00003D1FB7800933B78FF187B78042B00D065
:1035D0002AE50026039B584ADB1B9BB20293574BFC
:1035E00004931B78B24263D0B846B34256D800D099
:1035F0001AE5534B534F41465046029A98470828C4
:1036000003D9029A824200D38AE0049B01361B78D8
:10361000F6B2B342E9D207E55046FFF74FFBB37865
:10362000454A0093454B002698461B78002A0DD04A
:10363000454FB34225D820D1444B50469847434686
:1036400001361B78F6B2B342F3D206E0504600F0E2
:103650006BFB43461B78002B0FD1532200215846A9
:10366000FEF740FD5B461022FF21D81CFEF73AFD15
:103670002022FF213648FEF735FD5B46009A9A70FE
:1036800083E618233A68734394466344002BF4D0CE
:103690005B68D2E7FFF7E2F80200EFE62A4B1F680B
:1036A00018237343FF18002F00D1BDE4BB68A2E7C5
:1036B000029B39001A005046984600F04BFB082840
:1036C00000D8B1E44246824200D2ADE41D4B984698
:1036D000009B012B28D000220AE0BB78D318DBB274
:1036E0005B44D978FF2900D09EE40132DE70D2B26B
:1036F000009B9A42F1D18046330002003900144801
:1037000000F03CFD049B47441B78B34200D34FE7D5
:103710008AE4104B002B00D13BE600E000BF38E606
:103720003B0047469846D3E74246054B92689A428B
:10373000D1D1059B0093CEE76924001085E10020DC
:10374000553D0010087E00102CD70020293D0010A8
:1037500067DA002000000000F8B557464E46DE4606
:1037600045460C00E0B516001F00002A3CD070232F
:1037700098461E4B00259B461D4B9A461AE05B4619
:103780001B78200099465346997800F0BBFC00282E
:103790001CD021004846FFF70DFA002816D0A37868
:1037A000DA09012A19D00A9A013513702378E4182E
:1037B000B54219DA6378052B08D1E3789B079B0F94
:1037C000BB4203D14246A3781A42D8D00020F0BCB5
:1037D000BB46B246A946A046F8BD0B9A0135137008
:1037E0002378E418B542E5DB0120F0E7EC0E002079
:1037F00054DA0020802310B51B0184B001930E4BD6
:1038000002901C6803916269EFF3108372B611682D
:103810000029FCD0BFF35F8FA361200001A900F055
:10382000F9FD6269A369BFF35F8F0021116083F323
:10383000108804B010BDC046ACDA0020702270B50C
:103840008B780C001A4201D0002070BD064B20007E
:103850001D78064B997800F055FC0028F4D0210023
:103860002800FFF7A7F9F0E7EC0E002054DA00205B
:10387000074B080019687F2310B50340C0095B009F
:1038800033301818034B181800F0F8FB10BDC04671
:10389000A8DA002054DA0020074B080019687F23BB
:1038A00010B50340C0095B0033301818034B1818DB
:1038B00000F00CFC10BDC046A8DA002054DA00204D
:1038C0007F2070B508400F4C4000CD0924186419C2
:1038D0003034E5780020ED0700D570BD0126E5788D
:1038E000094835430078E570FFF7ECF90028F4D17A
:1038F0000122E3789343E370E37803329343E37068
:10390000EBE7C04654DA0020EC0E002070B50A4EFA
:103910000500300008220C00FEF7EAFB00237F219F
:10392000F3602278B36091425B412800D901002204
:103930000023FFF7C5FF70BDF8D90020F8B5CE46CB
:10394000474691462A4E80B50822070030000D00F8
:103950009846FEF7CDFB4B46B3600023F381EC792C
:10396000A97924020C43231C444500D943469AB24A
:103970009046B381002C13D0002A1FD04B46002B59
:1039800034D0131C402A1FD89BB2984633787F2B23
:1039900020D80021174A43463800FFF791FF09E07D
:1039A0007F222B7838009A42644100230022E101F3
:1039B000FFF786FFC0BCB946B046F8BD33787F2B11
:1039C00011D980210022E6E740239BB29846337844
:1039D0007F2BDED9074C424649462000FEF788FB84
:1039E00080212200D7E700210022D4E70020E1E770
:1039F000F8D9002014DA002010B514220021024862
:103A0000FEF770FB10BDC046F8D90020014B1861CD
:103A10007047C046F8D9002010B5054C01000822B7
:103A20002000FEF765FB0023A360E36010BDC046E5
:103A3000F8D90020F8B53B4C1D0023780600DA09C0
:103A4000C9098A4213D00020002D00D0F8BD364BA2
:103A5000002B03D021003000FFF79EF82369002BD4
:103A600044D022000321300098470120EEE77F2B4D
:103A700006D8A068002837D02A002C49FEF738FB6A
:103A8000A368E28959195219E38892B2E281A160D0
:103A9000934214D03F2D12D9A589A81A071C80B2D1
:103AA00040282FD82378BFB27F2B2DD80021AA42DF
:103AB00035D01E4A3B003000FFF702FFC6E72369FE
:103AC000002B05D0220002213000984700280FD09B
:103AD0007F220021237830009A42494100230022AE
:103AE000C901FFF7EDFEB1E70020AFE70120ADE728
:103AF00000213000FFF7F8F830008021FFF7F4F8DC
:103B00000120A3E74027CDE7AA4207D0074C3A009F
:103B10002000FEF7EDFA80212200CBE78021002271
:103B2000C8E7C046F8D90020992B001014DA00200D
:103B300010B50400FFF75AF9002801D1002010BD8C
:103B4000FFF75CF90028F9D1B22080004443034814
:103B50000019037901201840F1E7C04630D7002052
:103B6000B2239B00584310B5024B1030C01800F030
:103B700057FB10BD30D70020F0B5B225AD0045434E
:103B80002C00C646174F1034E41900B5200092B23D
:103B900000F0CAFB0600200000F060FB3F2803D8BD
:103BA000300080BCB846F0BD7B190020D97898461B
:103BB000FFF75EFE0028F3D0200000F04FFB3F2807
:103BC0000AD992239B00EA184346D219D9780020DB
:103BD0004023FFF775FEE3E743460020D978FFF75F
:103BE0005BFEDDE730D70020F8B50400FFF7FEF8F4
:103BF000002801D10020F8BDFFF700F90028F9D115
:103C0000B220800044432500144E2435AD1928000D
:103C100000F006FB0028EDD037190020B978FFF737
:103C200027FE0028E6D0A2239B009C466444A419EA
:103C300021002800402200F077FBB978051E08D04B
:103C4000030022000020FFF73BFE0028D2D028000E
:103C5000D1E70020FFF720FECCE7C04630D7002098
:103C600070B5B224A4004443094B2434E418050081
:103C700092B2200000F012FC0600200000F0D0FA02
:103C80003F2801D8300070BD2800FFF7ADFFF9E7ED
:103C900030D70020B2239B00584310B5024B24308C
:103CA000C01800F0DBFA10BD30D70020B222F0B50A
:103CB0001B4C83B0002120009200FEF713FAFF2373
:103CC0006371184B80260025E3800127082321001B
:103CD0002000760023733200278138310095073B9E
:103CE000103000F065FA2100200039313200FF3138
:103CF00001230097243000F05BFA8E239B00E61826
:103D00003000FCF713FF90239B002662E61830007A
:103D1000E561FCF70BFF2663656303B0F0BDC046A9
:103D200030D7002000C2FFFF10B5094C052200214A
:103D30002000FEF7D7F920002434103000F062FC98
:103D4000200000F05FFC0121200000F07BFC10BD92
:103D500030D70020F0B54B79060083B0022B02D19A
:103D60008B79022B03D00025280003B0F0BD304F23
:103D7000BB78002BF7D18B7809253B700C780C1998
:103D80006378242B0BD1082A02D80FE0AA420DD366
:103D90002378E418ED186378ADB2242BF6D0052B08
:103DA00021D0042B02D163790A2B2FD0214C200083
:103DB00000F054FA3F28D7D92600103E0020F178B1
:103DC000FFF756FD0028CFD0200000F047FA3F282B
:103DD00017D98E239B00E218F93BF178FF3B0020B6
:103DE000FFF76EFDC0E721003000FFF727FD002838
:103DF000B9D0A3787B702378ED18E4186378ADB25E
:103E0000CFE7F1780020FFF747FDADE70A4B2778B1
:103E1000019301330093022202233000E119FFF7DE
:103E20009BFC00289FD00E35ED19ADB2BEE7C04611
:103E300030D7002040D7002032D70020F8B56023CB
:103E400014001278050013400020202B12D12F4AB5
:103E50006379277916781B023B439E420AD1637827
:103E6000222B27D007D8202B17D0212B02D10129B4
:103E70003DD00120F8BD232BFCD101293FD00329DF
:103E8000F7D1234B002BF4D0E178A378090200206E
:103E9000194300E000BF0120ECE7012927D00329E6
:103EA000E7D11C4B002BE4D00020911DFEF7E2FA75
:103EB0000120DFE7012922D00329DAD101252E00D4
:103EC000A378E478023924021C431471264024327A
:103ED0001000714000F0B6FB0F4B002BC9D06208F8
:103EE000002031002A4000E000BF0120C2E7072384
:103EF00021002800094AFFF721FD0120BAE721002F
:103F00002800FFF703FD0120B4E7C04630D70020AA
:103F100000000000752400100000000036D70020CB
:103F2000F8B557464E464546DE46E0B5494F804611
:103F3000FA780C001E008A4264D19AB292239B0048
:103F4000FD1810239B46BB442900584600F0A6FAF2
:103F5000414BD946002B18D07B79D946FF2B14D082
:103F6000002E12D0AA19924603E0013555450CD017
:103F70007B792A789A42F8D1484600F067F9002800
:103F8000F3D1797900E000BFEFE7344B002B04D088
:103F9000484600F05BF9002852D0484600F05EF930
:103FA0003F2834D84A46103A9378A34207D00124D8
:103FB0002000F0BCBB46B246A946A046F8BD284B3F
:103FC000002B02D0002000E000BF0020FFF70CFE15
:103FD0000028ECD1234D280000F022F90028E6D17A
:103FE000002EE4D0B306E2D1243D4046A978FFF785
:103FF0003FFC041EDBD0002300224046A978FFF7D7
:104000005FFCD5E7BB788B42D9D00024D0E74D4682
:10401000103D0020E978FFF72BFC002801D1AB7898
:10402000C3E7484600F01AF93F280CD98E229200C7
:1040300040230020E9784A44FFF742FCAB78B4E71C
:10404000FEF78AFBA9E70020E978FFF725FCAB78AB
:10405000ABE7C04630D70020000000005927001011
:104060000000000054D7002010B50020FEF7D8FE55
:1040700010BDC04610B5FEF7C9FE10BD037870B57F
:10408000DB0704000E00DD0F002B17D103785B0760
:1040900001D5280070BD01213000494203F0E0FC49
:1040A0002378DB07DD0F002B0AD123785B0708D4C8
:1040B0000422237801251343237002E00025E8E75A
:1040C0000025300003F0B4FCE3E7C04670B50D00F6
:1040D000012104004942280003F0C2FC23785B0759
:1040E000DE0F002B04DB280003F0A2FC300070BDC3
:1040F0002378DB0704D40422237893432370F2E768
:104100000026F0E710B5437904791B0223435B05D1
:104110005A0DC3789B079B0F022B05D0032B15D09C
:104120000020012B08D010BD02291CD00020402304
:1041300093424041C0B2F6E702394B4259410D4B20
:104140009C46614491424041C0B2ECE702394B4287
:104150005941F023002049429B00194040319142CF
:104160004041C0B2DFE7044BD3185A425341D8B2A2
:10417000D9E7C046FF03000000FEFFFF8A1870B5B4
:10418000914207D27F264C78052C04D00C7809196F
:104190008A42F8D870BD34008D782C406400041930
:1041A000ED0963550C7809198A42ECD8F2E7C0464C
:1041B000F0B5C64600B5040006A8057880208846FC
:1041C00017001E000002824227D8E068002803D0B2
:1041D0000121494203F044FC2069002803D0012159
:1041E000494203F03DFC4346236073045B0CED033E
:1041F0001D430023E0686381A780E58023810028B8
:1042000001D003F015FC20690124002801D003F03F
:104210000FFC200080BCB846F0BD0024F9E7C04682
:1042200010B5048941898288A3B288B28C4207D331
:104230001B1A9BB2101C9A4200D9181C80B210BDE8
:104240005100091A5B189BB2F4E7C04603000089CD
:104250005B89C01A43425841C0B2704710B5048907
:1042600041898288A3B288B28C4207D31B1A9BB2C1
:1042700000209A4201D9D31A98B210BD5100091AF0
:104280005B189BB2F4E7C04670B5040000690E00ED
:10429000002803D00121494203F0E2FB258960890F
:1042A000A288A9B283B285422CD3CD1AADB2002D1B
:1042B0002ED0AA4208D2914231D38B1A9BB263818D
:1042C0009A4203D89B1A9BB29A42FBD9E288216892
:1042D0005204520C53433000C918FDF709FF61899D
:1042E00001254B1C9BB2A288994214D9002352008D
:1042F0009B1A9BB220696381002801D003F098FBD0
:10430000280070BD5500ED1A4D19ADB2002DD0D169
:10431000002563899BB252009342EBDBE8E78918E2
:104320008BB26381CCE7C046F0B546464F46D646D1
:10433000C0B50600006989469046002803D00121D7
:10434000494203F08DFB31897289B5888BB294B2F2
:10435000914257D31F1BBFB2002F4DD0BD4205D293
:10436000AB4254D25B199CB22F0074814346B845CE
:1043700040D89FB2A54203D8641BA4B2A542FBD982
:10438000F288281B5204530C190098463368614385
:104390009C4680B26144874226D94346584383B243
:1043A0001A0048469A46FDF7A3FE434648467D1B41
:1043B00064195C4331685044A2B2FDF799FE7189DB
:1043C000B588CB199BB26A00994217D99B1A9BB248
:1043D00030697381002801D003F02AFB3800E0BC6B
:1043E000BA46B146A846F0BD424648467A43FDF774
:1043F0007FFEE4E73B1CBCE773899BB26A009342F3
:10440000E6DBE3E76F003F1BDF19BFB2A4E75B1BEE
:104410009CB2A9E7F8B50400C0680E00002803D0DC
:104420000121494203F01CFB258920896189A2886A
:10443000ADB283B28FB2884228D3DB1B9BB29A42C3
:1044400009D8E779FF0906D1E068002801D003F018
:10445000EFFA3800F8BD2B00954203D39B1A9BB2AC
:104460009342FBD2E28821685204520C5343C8188D
:104470003100FDF73DFEA2886B1C9BB252009D42AD
:1044800009D99B1A9BB201272381DDE75100C91B83
:104490005B189BB2D3E79342F5DBF2E7F0B54E46EB
:1044A0004546DE465746E0B589460500140083B010
:1044B000002A6ED0C068002803D00121494203F0D1
:1044C000CFFA2F89EA796B89BFB29BB2D20942D168
:1044D000AE889F4267D27200D31AFB189BB20022AB
:1044E00090469E4231D9F31A1A1C9BB2A34200D9BE
:1044F000221C93B29846E8884346FB189BB29B4621
:104500003C00B74203D3A41BA4B2B442FBD2400484
:10451000430C18009A462B6860439C46311B89B2B5
:10452000604441454ED35246434649465A43FDF7FF
:10453000DFFDAB885B00BB4501D39B4503DB5A46DF
:10454000D31A9BB29B465B462B81E868002822D099
:1045500003F06EFA1FE0AA889046944226D29F424A
:1045600044D34146FA1A92B2490012198A4209DB31
:1045700042469A1892B2171BBFB29346BB423AD931
:104580007F1ABFB2E3199BB246469B46A046E88815
:10459000B6E700239846404603B0F0BCBB46B2469F
:1045A000A946A046F0BDFB1A9BB298E7E888A21A7C
:1045B0004404640C54434246A144002AC5D04646F4
:1045C0001F0099E75346594389B20A0001914946B1
:1045D000FDF78EFD43469A1B5346A2185A43019994
:1045E000286892B24944FDF783FDA2E75100CA1A38
:1045F000BA1892B2B9E7B942C2DD4646E888A04689
:104600007EE7C04610B50400C068002803D0012131
:10461000494203F025FA2069002803D001214942CC
:1046200003F01EFA0023E06863812381002801D093
:1046300003F0FEF92069002801D003F0F9F9012008
:1046400010BDC04670B50400C0680D00002803D03E
:104650000121494203F004FA2069002803D0012116
:10466000494203F0FDF97F21E379ED011940E0684B
:104670002943E171002801D003F0DAF9206900280C
:1046800001D003F0D5F9012070BDC046F8B5DE4673
:1046900057464E4645468346E0B505200C00FDF7DB
:1046A0007DFA0600600821008019FDF72BFC43000D
:1046B00098468044070005214046FDF723FC3B1A3D
:1046C0009A46204B8146700080199C4234D81E497E
:1046D000FDF718FC451C5B461C680023E366226856
:1046E0000433534006221A4080235B0123431A609F
:1046F0005346E3614B462362434601204F2B03D9C7
:1047000050214046FDF7FEFBA0232200E05080230D
:10471000E06F7C3245402D045B0113432D0C1D607E
:10472000012339003000E366FDF7ECFBF0BCBB462B
:10473000B246A946A046F8BD0449FDF7E3FB451C77
:10474000C9E7C0463F420F008096980040787D013F
:10475000104A70B5821A53425A41072352429A4373
:104760000D4B10321A600D4B0D4C1A601500A368EA
:104770009D432B1EFAD166240268FF340571D5666D
:104780001460633C8833FF3CD5639563D450FFF7D6
:104790007DFF70BDF00E002000E0004000F0004002
:1047A00000C00040F0B557464E464546DE469046AE
:1047B0000022E0B583B01E000CAB1B7884469A46FD
:1047C0000368DA6601325960DA66002E4FDD514621
:1047D0004A40520201928022914632008025771E83
:1047E0000020464610219046AD000024002804D148
:1047F00062461479621E9441A40200229346B84294
:104800001AD0325C22435C4622431A615A6B114231
:10481000FCD04A469C58002C11D1B84222D001301D
:104820008045E2D1634652461A7103B0F0BCBB46E4
:10483000B246A946A046F0BD019A9346E1E75A6DFB
:10484000012293465A6B2A42FCD01A6E5A46002A1D
:10485000E5D0002C03D0E30701D42307E2D40220E3
:104860004042DFE75246002AD9D1D346EAE700208A
:10487000D8E7C046F0B5C64600B5040001F09AFD81
:10488000374D2B6801332B606B68002B32D0354ECF
:10489000736C002B27D0E26AB36C0133B364F36C02
:1048A000934200D2F26493009B189B00EF18FA68C1
:1048B0009168A260E1609068211D416091602A00CA
:1048C0000832D3186361BB680133BB6001F07EFD21
:1048D000736C002B04D06B68DA6AE36A9A4210D3D7
:1048E00080BCB846F0BD6B68E26ADB6A9342D3D8FD
:1048F0006C60D1E76C602B68012B05D0E26A194E21
:10490000CAE701F04BFDEBE72800083001F006FF95
:1049100028001C3001F002FF2800303001F0FEFEBC
:104920002800443001F0FAFE582398462F00A8448E
:1049300040466C3701F0F2FE380001F0EFFE094E00
:10494000300001F0EBFE3000143001F0E7FE3000E3
:10495000283001F0E3FE4346E26AF36337649BE7E5
:10496000941200201413002070B5104C104E14E067
:1049700001F020FD236ADD68281D01F003FF336884
:10498000013B3360236D013B236501F01FFD286B64
:1049900001F014FE280001F011FE236D002BE7D179
:1049A000B368012BF9D901F0F9FCF6E714130020E4
:1049B00094120020F0B54F464646D64604001F4DDF
:1049C000C0B56B6D1E4E9846EB6B0F0099462B6C75
:1049D00070689A46043001F0D5FE631C16D07368E7
:1049E000716844445C600431A0450BD8484601F02E
:1049F000B1FEAB6DA34200D9AC65E0BCBA46B1468E
:104A0000A846F0BD504601F0A5FEF6E7002FE6D01F
:104A10007268EB6A996893607268D160726899688D
:104A200004324A60726804329A602A00736828323D
:104A30005A61AB6A0133AB62DFE7C0461413002052
:104A400094120020F0B54546DE4657464E46E0B586
:104A5000454983B04D6D6B1C01934B65002B0CD108
:104A6000CB6B0A6CCA630B64CB6D0133CB65CB6B2C
:104A70001B68002B6FD1013B8B6500228B6D944628
:104A8000019A9A425AD3CB6B1B68002B53D0002358
:104A90009A46364B9B4608239946D94438E05046FF
:104AA00014685861013C14609A6A002A0ED0DC69CF
:104AB000186A5568A060186A44601C001834A54242
:104AC0004ED0504614689862013C1460DC6ACA6C8F
:104AD000944200D9CC6458464646A200121992006E
:104AE0008018C7684A44BD689F60DD60BD686E601D
:104AF000BE605A618368013383605B465B68DB6A32
:104B00009C4201D901239C46CB6B1B68002B12D021
:104B1000CB6B0198DB68DB685A68904222D39868B7
:104B2000DC685A6984606060181D804650684045A2
:104B3000B5D15460B3E701235B428B650B6E002B4C
:104B400001D001239C46604603B0F0BCBB46B24690
:104B5000A946A046F0BDCB6BDB681B688B658CE774
:104B60005060AEE78A65E9E7141300209412002034
:104B7000F8B5CE4647469846930080B50700180022
:104B80000D00994601F09EFC061E00D193E06820BE
:104B900001F098FC041E00D190E068220021FDF78E
:104BA000A1FA484607230438266336189E43002D91
:104BB0005FD034232A78E2542B78002B56D035234B
:104BC0006A78E2546B78002B50D03623AA78E254EE
:104BD000AB78002B4AD03723EA78E254EB78002BED
:104BE00044D038232A79E2542B79002B3ED0392344
:104BF0006A79E2546B79002B38D03A23AA79E254CF
:104C0000AB79002B32D03B23EA79E254EB79002BCD
:104C10002CD03C232A7AE2542B7A002B26D03D2339
:104C20006A7AE2546B7A002B20D03E23AA7AE254AF
:104C3000AB7A002B1AD03F23EA7AE254EB7A002BAE
:104C400014D040232A7BE2542B7B002B0ED041232F
:104C50006A7BE2546B7B002B08D04223AA7BE25490
:104C6000AB7B002B02D04323EA7BE2544323002298
:104C7000E254089D032D27D8E562201D01F05AFD5E
:104C80002000183001F056FD04235D1B4246390018
:104C900030002461A561646201F06CFB099B206017
:104CA000002B00D01C602000FFF7E4FD0120C0BCF9
:104CB000B946B046F8BD01204042F8E7300001F0A7
:104CC0007DFC01204042F2E70325D5E7F8B504005A
:104CD00001F070FB214E002C31D0271D380001F06F
:104CE00051FDA36A002B03D02000183001F04AFDCB
:104CF0001B4DAB6C0133AB647368A34221D03368A6
:104D0000013B3360EB6B1B68002B15D0EB6BDB6852
:104D10001B68AB6501F05AFB7368A34205D0206B9A
:104D200001F04CFC200001F049FC6B6C002B02D020
:104D30007368A3420ED0F8BD013BAB65EAE7746827
:104D4000CBE728003900143001F0F8FC2B6D01335B
:104D50002B65DFE701F022FBEDE7C046941200204F
:104D60001413002010B5040001F024FB002C04D023
:104D7000E46A01F02BFB200010BD014B5C68F7E7F3
:104D80009412002010B5040001F02AFB002C04D07E
:104D9000E46A01F029FB200010BD014B5C68F7E7D5
:104DA00094120020F8B504000D00032900D9032552
:104DB00001F000FB002C28D0E36A9D4219D0234F5C
:104DC0001AD87E68361B72425641A269E562002AF3
:104DD00002DB04214D1BA56139009A00D31808316C
:104DE0009B006269CB189A4212D0002E01D001F0CC
:104DF000D5FA01F0EBFAF8BD7A68A24224D07A68BD
:104E0000D66AAE42B6417642DFE7104B5C68D3E724
:104E1000251D280001F0B6FC0D4BE26AD96C8A42D0
:104E200000D9DA6493009B189B00F918CA68083708
:104E30009068FF18E0608B6890680133A26045605D
:104E4000956067618B60D0E70026BEE79412002072
:104E500014130020F8B5040001F0ACFA474E002C02
:104E600047D0271D380001F08DFCA36A002B03D02A
:104E70002000183001F086FC414D39002800283010
:104E800001F05CFC6423E25C012A01D10022E254BF
:104E90006523E25C012A01D10022E2546623E25C30
:104EA000012A01D10022E25401F090FA6B6C002B30
:104EB00003D17368A3420FD0F8BD01F07BFAEB6B0E
:104EC0001B68002B17D0EB6BDB681B68AB6501F030
:104ED0007DFA7368A342EFD16B6C002B10D1A96AE5
:104EE000326891420AD06B6E002B0CD001232B66E6
:104EF000E2E77468B5E7013BAB65E8E77360DBE7C1
:104F000001F04CFAD8E72B66EA6C930099188900F7
:104F10007118896800291DD1501E83001918890055
:104F200071188968002927D1901E830019188900FB
:104F30007118896800291FD1D01E830019188900B3
:104F400071188968002917D1043A930099188900CB
:104F5000711889689B189B00F0180300C168103312
:104F60004968C160994204D0CB687360EA64736891
:104F7000A2E74169C160F7E70200EBE79412002065
:104F800014130020F8B5224D04006B6883420BD047
:104F9000002809D001F00EFA1E4E62693300283352
:104FA0009A4202D001F012FAF8BDA36AB342F9D0D6
:104FB000002BF7D16433E35C012BF3D06523E35C72
:104FC000012BEFD06623E35C012BEBD0271D3800CB
:104FD00001F0D8FBE36AF26C934200D9F3649A00C3
:104FE000D2189200A818C1688E68A160E6608E6829
:104FF00077608F60290008318A1862618268013207
:1050000082606A68D26A9342CCD901F0C7F9C9E7D5
:105010009412002014130020F8B5CE46474680B500
:10502000040001F0DDF9294E6269330028330500E0
:1050300000279A4207D0280001F0D6F93800C0BCFA
:10504000B946B046F8BDA36AB342F4D0002BF2D102
:105050006433E35C012BEED06523E35C012BEAD0E3
:105060006623E35C012BE6D0736E002B28D1184B2E
:10507000E26A98465B68DB6A9A4202D901230137EB
:105080003366231D1800994601F07CFBE26AF36C3D
:105090009A4200D9F26493009A1843464E46920011
:1050A0009918CB689868A360E060986846609E6035
:1050B000434608339B1863618B6801338B60BAE702
:1050C00021003000183101F039FBB4E7141300203F
:1050D00094120020802070B5C00001F0F3F9051E85
:1050E00034D0682001F0EEF9041E32D0682200218D
:1050F000FCF7F8FFFF239B009C46072325636544CC
:105100009D43164B201D636301F014FB20001830F3
:1051100001F010FB0423002228001149A36124613F
:10512000646201F027F90F4D20602000AC66FFF7A4
:10513000A1FB00F0DBFF012808D172B601235B421E
:10514000AB65002368646B6501F09AF9064B1B6838
:1051500070BD280001F032FAF8E7C04649444C45DA
:105160006949001014130020F80E002010B572B623
:105170000022024B5A6401F00FF910BD14130020F5
:10518000024A536E013353667047C0461413002021
:10519000F0B5D6464F464646C0B501F00BF9474C30
:1051A000636E013B6366636E002B6BD1444B9A4682
:1051B0001B68002B66D02368002B49D0002399463A
:1051C00008339846073B9C46D044E368DB68D869BF
:1051D000196A9A6A816048601800566818308642D9
:1051E0005FD0494699621168013911605A6998681F
:1051F000D9681F1D816048605068B8424FD011685F
:1052000001391160E26CD96A914200D9E1645046DB
:105210008A00521892008618F068424485689860A7
:10522000DD6085686F6087605A61B3680133B36081
:1052300053465B68DB6A99422DD96346236623682F
:10524000002BC2D1E36B1B68002B2CD1013BA36563
:10525000E66E002E13D0012707E0FFF7F3FB0028CE
:1052600000D02766013E002E08D0636E002BF4D0DC
:10527000E36E013E0133E366002EF6D1E666236E4F
:10528000002B15D1002401F0A1F82000E0BCBA46A3
:10529000B146A846F0BD2368002B96D1D2E75160F5
:1052A000ADE751609DE7E36BDB681B68A365CFE763
:1052B000534601245B6801F071F8E4E71413002001
:1052C00094120020F0B5D6464F464646214DC0B553
:1052D0006B6E01336B6603686E6D5C180460B342DD
:1052E0000CD9A3420CD80027FFF752FF002824D086
:1052F0003800E0BCBA46B146A846F0BDA34201D88A
:10530000A642F0D26B6D144F98469E1BEB6BA4190E
:1053100099462B6C78689A46043001F033FA7B6822
:1053200079685C600431A0450AD9504601F012FA50
:105330000127FFF72DFF0028DAD101F02FF8D7E77A
:10534000484601F007FAAB6D01279C42CCD2AC6510
:10535000CAE7C0461413002094120020F8B5CE46C8
:105360004746040080B500281BD0154D6B6E0133F5
:105370006B66144E6F6DEB6BE41998462B6C70687E
:105380009946043001F0FEF9736871685C6004317D
:10539000A7420CD9484601F0DDF9FFF7F9FE0028D5
:1053A00001D100F0FBFFC0BCB946B046F8BD404695
:1053B00001F0D0F9AB6D9C42EFD2AC65EDE7C04691
:1053C0001413002094120020014B586D7047C04602
:1053D00014130020014B586D7047C0461413002071
:1053E000014B18687047C04694120020002801D075
:1053F00034307047014B5868FAE7C04694120020D9
:1054000070B5074C0500636E0133636600F0D2FF90
:10541000E06E4019E06600F0D9FFFFF7B9FE70BDFD
:1054200014130020064B10B55A6E002A02D1FFF764
:1054300009FB10BDDA6E00200132DA66F9E7C046DA
:1054400014130020214830B5436E002B02D00123F5
:10545000036630BD0366C26C1D4993009C18A4000E
:105460000C19A468002C1FD1551EAB005C19A400B8
:105470000C19A468002C16D1951EAB005C19A40071
:105480000C19A468002C0ED1D51EAB005C19A40029
:105490000C19A468002C06D1043A93009C18A400AF
:1054A0000C19A46800E02A009B189B00CD182B0063
:1054B000EC6810336468EC609C4204D0E3684B6095
:1054C000C2644B68C5E76C69EC60F7E71413002011
:1054D00094120020F8B5CE4647460C001E4D80B50C
:1054E0006968183101F036F91C4E776DF36B9846F8
:1054F000336C68689946043001F044F9631C15D098
:105500006B686968E4195C600431A74206D94846B3
:1055100001F020F9C0BCB946B046F8BD404601F0E4
:1055200019F9B36D9C42F5D2B465F3E76A68F36A82
:10553000996893606A68D1606A68996804324A60C1
:105540006A6804329A6032006B6828325A61B36A22
:105550000133B362DEE7C04694120020141300202A
:10556000F8B580234746CE461500274C1B066268D7
:105570000B4380B5936162684368244E9968D36198
:10558000626811626268996818324A60626818320B
:105590009A6063689862036801330360776DF36B08
:1055A0009846336C60689946043001F0EBF86B1C48
:1055B00015D063686168ED195D600431AF4206D9AA
:1055C000484601F0C7F8C0BCB946B046F8BD4046F1
:1055D00001F0C0F8B36D9D42F5D2B565F3E762689E
:1055E000F36A996893606268D1606268996804326E
:1055F0004A60626804329A603200636828325A61F5
:10560000B36A0133B362DEE7941200201413002062
:10561000F8B5CE4647462A4C43680D00616880B510
:105620009E68CB6161680E6261689E681831716026
:105630006168183199606368986203680133036098
:10564000002A1FD01F4D6B6DEB6B2B6C6068043014
:1056500001F098F86268EB6A996893606268D160BB
:105660006268996804324A60626804329A602A006B
:10567000636828325A61AB6A0133AB62C0BCB94679
:10568000B046F8BD0F4E776DF36BED199846336C4D
:1056900060689946043001F075F8636861685D6080
:1056A0000431AF4207D8404601F054F8B36D9D4233
:1056B000E4D2B565E2E7484601F04CF8DEE7C046C3
:1056C0009412002014130020C368F0B5DB68D86979
:1056D000196A9A6A816048601800546818308442D8
:1056E00047D000219962116801391160264A516E34
:1056F00000292ED19868DC6859698460DC681F1D18
:1057000060604868B84236D0086801380860D06CDC
:10571000D96A81422BD888001C4C4018800026187A
:10572000F5688446A8689D60D860A8684760AF6047
:1057300025000835280060445861B3680133B36020
:1057400063680020DB6A8B4202D2012301301366BA
:10575000F0BD51688C68D9611C628C68606088609B
:1057600011680A4C013111609A62D96AE8E7D16484
:10577000D1E75160B5E708684C6001380860D06C2B
:10578000D96A8142C7D9F2E714130020941200208D
:1057900080231B06F0B50B438468416802690360EF
:1057A000C3688C60846861605168814234D0002194
:1057B00001611168D8680139116099685A69886077
:1057C000D8681F1D41605168B94227D0116801395E
:1057D0001160134AD96A9446D26C914201D962464B
:1057E000D1648A000F4C52189200A518E8688668A8
:1057F0009860DE60866877608760200008308218D5
:105800005A61AB680133AB606368DB6A994202D9C5
:10581000012362461366F0BD5460C8E75060D5E7C7
:10582000141300209412002010B5040000F0C2FDF3
:10583000034BDA6D5B6D2260636000F0C7FD10BD45
:1058400014130020024BDA6D5B6D026043607047F9
:1058500014130020F8B50D00040000F0ABFD104A51
:105860002B68516D581C19D0D66D27686068B742F7
:1058700008D0884206D8002301242B6000F0A6FD42
:105880002000F8BD0E1AB342F5D95B1A1B182B6025
:10589000D36D2360536D63600024EFE70024EDE7D0
:1058A000141300200122014B1A66704714130020C4
:1058B000042905D8002804D01031890041184A6015
:1058C0007047014B5868F7E794120020042909D863
:1058D000002804D010318900411848687047024BF5
:1058E0005868F7E70020F9E794120020014B586848
:1058F0007047C04694120020044B01205A6C002AC5
:1059000003D0586E434258414000704714130020A2
:10591000044B5A68596890695A680423C96A5B1A2B
:105920009361704794120020F0B50400C64625002C
:1059300000B51700884600F03DFD1E4E1635736811
:10594000AA00D358002B06D1012273681B196433B7
:105950001A70002F19D100F039FD00F02BFD73688B
:10596000AD00EF58002F05D04346002B1ED000227B
:105970007368EA500023706800196430037000F007
:1059800025FD380080BCB846F0BD0B4A536E01338C
:10599000536600F01BFD01213800FFF70BF8FFF7FD
:1059A000F7FB0028D9D100F0F9FCD6E773687A1E1E
:1059B000EA50DFE79412002014130020F0B5C64629
:1059C000040000B51F008846160000F0F3FC264DC9
:1059D0006868001964300378022B0ED041466B686A
:1059E000A2009B189A6D8A439A6501236A6812196E
:1059F00064321370069B002B24D100F0E7FC00F00A
:105A0000D9FC002F05D023006A6816339B009B58F1
:105A10003B606B6800271B1964331B78022B06D18F
:105A20006B68A2009B189A6D0137B2439A650023F8
:105A3000686804196434237000F0C8FC380080BC26
:105A4000B846F0BD094A536E0133536600F0BEFC00
:105A500001210698FEF7AEFFFFF79AFB0028CED192
:105A600000F09CFCCBE7C0469412002014130020E9
:105A7000F0B5C64600B5069D06000C0090461F0016
:105A800000F098FC002D04D0230016339B009B5996
:105A90002B600223311964310D780B70EDB2032FA6
:105AA00016D011D8012F45D0022F04D1A4003419EB
:105AB000A36D0133A365012D10D0012400F086FCF5
:105AC000200080BCB846F0BD042FF4D1022D3AD09E
:105AD00043461634A400A351012DEED17369B16879
